{"abi":[{"inputs":[{"internalType":"uint256","name":"minimumValue","type":"uint256"},{"internalType":"address","name":"sender","type":"address"}],"stateMutability":"nonpayable","type":"constructor"},{"inputs":[{"internalType":"uint256","name":"index","type":"uint256"}],"name":"approveRequest","outputs":[],"stateMutability":"nonpayable","type":"function"},{"inputs":[{"internalType":"address","name":"","type":"address"}],"name":"approvers","outputs":[{"internalType":"bool","name":"","type":"bool"}],"stateMutability":"view","type":"function"},{"inputs":[],"name":"approversCount","outputs":[{"internalType":"uint256","name":"","type":"uint256"}],"stateMutability":"view","type":"function"},{"inputs":[],"name":"contribute","outputs":[],"stateMutability":"payable","type":"function"},{"inputs":[{"internalType":"string","name":"description","type":"string"},{"internalType":"uint256","name":"value","type":"uint256"},{"internalType":"address","name":"recipient","type":"address"}],"name":"createRequest","outputs":[],"stateMutability":"nonpayable","type":"function"},{"inputs":[{"internalType":"uint256","name":"index","type":"uint256"}],"name":"finaliseRequest","outputs":[],"stateMutability":"nonpayable","type":"function"},{"inputs":[],"name":"getRequestsCount","outputs":[{"internalType":"uint256","name":"","type":"uint256"}],"stateMutability":"view","type":"function"},{"inputs":[],"name":"getSummary","outputs":[{"internalType":"uint256","name":"","type":"uint256"},{"internalType":"uint256","name":"","type":"uint256"},{"internalType":"uint256","name":"","type":"uint256"},{"internalType":"uint256","name":"","type":"uint256"},{"internalType":"address","name":"","type":"address"}],"stateMutability":"view","type":"function"},{"inputs":[],"name":"manager","outputs":[{"internalType":"address","name":"","type":"address"}],"stateMutability":"view","type":"function"},{"inputs":[],"name":"minimumContribution","outputs":[{"internalType":"uint256","name":"","type":"uint256"}],"stateMutability":"view","type":"function"},{"inputs":[{"internalType":"uint256","name":"","type":"uint256"}],"name":"requests","outputs":[{"internalType":"string","name":"description","type":"string"},{"internalType":"uint256","name":"value","type":"uint256"},{"internalType":"address","name":"recipient","type":"address"},{"internalType":"bool","name":"complete","type":"bool"},{"internalType":"uint256","name":"approvalCount","type":"uint256"}],"stateMutability":"view","type":"function"}],"devdoc":{"kind":"dev","methods":{},"version":1},"evm":{"assembly":"    /* \"Campaign.sol\":426:2516  contract Campaign{... */\n  mstore(0x40, 0x80)\n    /* \"Campaign.sol\":957:1080  constructor(uint minimumValue, address sender){... */\n  callvalue\n  dup1\n  iszero\n  tag_1\n  jumpi\n  0x00\n  dup1\n  revert\ntag_1:\n  pop\n  mload(0x40)\n  sub(codesize, bytecodeSize)\n  dup1\n  bytecodeSize\n  dup4\n  codecopy\n  dup2\n  dup2\n  add\n  0x40\n  mstore\n  dup2\n  add\n  swap1\n  tag_2\n  swap2\n  swap1\n  tag_3\n  jump\t// in\ntag_2:\n    /* \"Campaign.sol\":1035:1047  minimumValue */\n  dup2\n    /* \"Campaign.sol\":1013:1032  minimumContribution */\n  0x00\n    /* \"Campaign.sol\":1013:1047  minimumContribution = minimumValue */\n  dup2\n  swap1\n  sstore\n  pop\n    /* \"Campaign.sol\":1067:1073  sender */\n  dup1\n    /* \"Campaign.sol\":1057:1064  manager */\n  0x02\n  0x00\n    /* \"Campaign.sol\":1057:1073  manager = sender */\n  0x0100\n  exp\n  dup2\n  sload\n  dup2\n  0xffffffffffffffffffffffffffffffffffffffff\n  mul\n  not\n  and\n  swap1\n  dup4\n  0xffffffffffffffffffffffffffffffffffffffff\n  and\n  mul\n  or\n  swap1\n  sstore\n  pop\n    /* \"Campaign.sol\":957:1080  constructor(uint minimumValue, address sender){... */\n  pop\n  pop\n    /* \"Campaign.sol\":426:2516  contract Campaign{... */\n  jump(tag_6)\n    /* \"#utility.yul\":88:205   */\ntag_8:\n    /* \"#utility.yul\":197:198   */\n  0x00\n    /* \"#utility.yul\":194:195   */\n  dup1\n    /* \"#utility.yul\":187:199   */\n  revert\n    /* \"#utility.yul\":334:411   */\ntag_10:\n    /* \"#utility.yul\":371:378   */\n  0x00\n    /* \"#utility.yul\":400:405   */\n  dup2\n    /* \"#utility.yul\":389:405   */\n  swap1\n  pop\n    /* \"#utility.yul\":334:411   */\n  swap2\n  swap1\n  pop\n  jump\t// out\n    /* \"#utility.yul\":417:539   */\ntag_11:\n    /* \"#utility.yul\":490:514   */\n  tag_23\n    /* \"#utility.yul\":508:513   */\n  dup2\n    /* \"#utility.yul\":490:514   */\n  tag_10\n  jump\t// in\ntag_23:\n    /* \"#utility.yul\":483:488   */\n  dup2\n    /* \"#utility.yul\":480:515   */\n  eq\n    /* \"#utility.yul\":470:533   */\n  tag_24\n  jumpi\n    /* \"#utility.yul\":529:530   */\n  0x00\n    /* \"#utility.yul\":526:527   */\n  dup1\n    /* \"#utility.yul\":519:531   */\n  revert\n    /* \"#utility.yul\":470:533   */\ntag_24:\n    /* \"#utility.yul\":417:539   */\n  pop\n  jump\t// out\n    /* \"#utility.yul\":545:688   */\ntag_12:\n    /* \"#utility.yul\":602:607   */\n  0x00\n    /* \"#utility.yul\":633:639   */\n  dup2\n    /* \"#utility.yul\":627:640   */\n  mload\n    /* \"#utility.yul\":618:640   */\n  swap1\n  pop\n    /* \"#utility.yul\":649:682   */\n  tag_26\n    /* \"#utility.yul\":676:681   */\n  dup2\n    /* \"#utility.yul\":649:682   */\n  tag_11\n  jump\t// in\ntag_26:\n    /* \"#utility.yul\":545:688   */\n  swap3\n  swap2\n  pop\n  pop\n  jump\t// out\n    /* \"#utility.yul\":694:820   */\ntag_13:\n    /* \"#utility.yul\":731:738   */\n  0x00\n    /* \"#utility.yul\":771:813   */\n  0xffffffffffffffffffffffffffffffffffffffff\n    /* \"#utility.yul\":764:769   */\n  dup3\n    /* \"#utility.yul\":760:814   */\n  and\n    /* \"#utility.yul\":749:814   */\n  swap1\n  pop\n    /* \"#utility.yul\":694:820   */\n  swap2\n  swap1\n  pop\n  jump\t// out\n    /* \"#utility.yul\":826:922   */\ntag_14:\n    /* \"#utility.yul\":863:870   */\n  0x00\n    /* \"#utility.yul\":892:916   */\n  tag_29\n    /* \"#utility.yul\":910:915   */\n  dup3\n    /* \"#utility.yul\":892:916   */\n  tag_13\n  jump\t// in\ntag_29:\n    /* \"#utility.yul\":881:916   */\n  swap1\n  pop\n    /* \"#utility.yul\":826:922   */\n  swap2\n  swap1\n  pop\n  jump\t// out\n    /* \"#utility.yul\":928:1050   */\ntag_15:\n    /* \"#utility.yul\":1001:1025   */\n  tag_31\n    /* \"#utility.yul\":1019:1024   */\n  dup2\n    /* \"#utility.yul\":1001:1025   */\n  tag_14\n  jump\t// in\ntag_31:\n    /* \"#utility.yul\":994:999   */\n  dup2\n    /* \"#utility.yul\":991:1026   */\n  eq\n    /* \"#utility.yul\":981:1044   */\n  tag_32\n  jumpi\n    /* \"#utility.yul\":1040:1041   */\n  0x00\n    /* \"#utility.yul\":1037:1038   */\n  dup1\n    /* \"#utility.yul\":1030:1042   */\n  revert\n    /* \"#utility.yul\":981:1044   */\ntag_32:\n    /* \"#utility.yul\":928:1050   */\n  pop\n  jump\t// out\n    /* \"#utility.yul\":1056:1199   */\ntag_16:\n    /* \"#utility.yul\":1113:1118   */\n  0x00\n    /* \"#utility.yul\":1144:1150   */\n  dup2\n    /* \"#utility.yul\":1138:1151   */\n  mload\n    /* \"#utility.yul\":1129:1151   */\n  swap1\n  pop\n    /* \"#utility.yul\":1160:1193   */\n  tag_34\n    /* \"#utility.yul\":1187:1192   */\n  dup2\n    /* \"#utility.yul\":1160:1193   */\n  tag_15\n  jump\t// in\ntag_34:\n    /* \"#utility.yul\":1056:1199   */\n  swap3\n  swap2\n  pop\n  pop\n  jump\t// out\n    /* \"#utility.yul\":1205:1712   */\ntag_3:\n    /* \"#utility.yul\":1284:1290   */\n  0x00\n    /* \"#utility.yul\":1292:1298   */\n  dup1\n    /* \"#utility.yul\":1341:1343   */\n  0x40\n    /* \"#utility.yul\":1329:1338   */\n  dup4\n    /* \"#utility.yul\":1320:1327   */\n  dup6\n    /* \"#utility.yul\":1316:1339   */\n  sub\n    /* \"#utility.yul\":1312:1344   */\n  slt\n    /* \"#utility.yul\":1309:1428   */\n  iszero\n  tag_36\n  jumpi\n    /* \"#utility.yul\":1347:1426   */\n  tag_37\n  tag_8\n  jump\t// in\ntag_37:\n    /* \"#utility.yul\":1309:1428   */\ntag_36:\n    /* \"#utility.yul\":1467:1468   */\n  0x00\n    /* \"#utility.yul\":1492:1556   */\n  tag_38\n    /* \"#utility.yul\":1548:1555   */\n  dup6\n    /* \"#utility.yul\":1539:1545   */\n  dup3\n    /* \"#utility.yul\":1528:1537   */\n  dup7\n    /* \"#utility.yul\":1524:1546   */\n  add\n    /* \"#utility.yul\":1492:1556   */\n  tag_12\n  jump\t// in\ntag_38:\n    /* \"#utility.yul\":1482:1556   */\n  swap3\n  pop\n    /* \"#utility.yul\":1438:1566   */\n  pop\n    /* \"#utility.yul\":1605:1607   */\n  0x20\n    /* \"#utility.yul\":1631:1695   */\n  tag_39\n    /* \"#utility.yul\":1687:1694   */\n  dup6\n    /* \"#utility.yul\":1678:1684   */\n  dup3\n    /* \"#utility.yul\":1667:1676   */\n  dup7\n    /* \"#utility.yul\":1663:1685   */\n  add\n    /* \"#utility.yul\":1631:1695   */\n  tag_16\n  jump\t// in\ntag_39:\n    /* \"#utility.yul\":1621:1695   */\n  swap2\n  pop\n    /* \"#utility.yul\":1576:1705   */\n  pop\n    /* \"#utility.yul\":1205:1712   */\n  swap3\n  pop\n  swap3\n  swap1\n  pop\n  jump\t// out\n    /* \"Campaign.sol\":426:2516  contract Campaign{... */\ntag_6:\n  dataSize(sub_0)\n  dup1\n  dataOffset(sub_0)\n  0x00\n  codecopy\n  0x00\n  return\nstop\n\nsub_0: assembly {\n        /* \"Campaign.sol\":426:2516  contract Campaign{... */\n      mstore(0x40, 0x80)\n      jumpi(tag_1, lt(calldatasize, 0x04))\n      shr(0xe0, calldataload(0x00))\n      dup1\n      0x82fde093\n      gt\n      tag_13\n      jumpi\n      dup1\n      0x82fde093\n      eq\n      tag_7\n      jumpi\n      dup1\n      0x8a9cfd55\n      eq\n      tag_8\n      jumpi\n      dup1\n      0x937e09b1\n      eq\n      tag_9\n      jumpi\n      dup1\n      0xd7bb99ba\n      eq\n      tag_10\n      jumpi\n      dup1\n      0xd7d1bbdb\n      eq\n      tag_11\n      jumpi\n      dup1\n      0xe7b668b4\n      eq\n      tag_12\n      jumpi\n      jump(tag_1)\n    tag_13:\n      dup1\n      0x0a144391\n      eq\n      tag_2\n      jumpi\n      dup1\n      0x3410452a\n      eq\n      tag_3\n      jumpi\n      dup1\n      0x4051ddac\n      eq\n      tag_4\n      jumpi\n      dup1\n      0x481c6a75\n      eq\n      tag_5\n      jumpi\n      dup1\n      0x81d12c58\n      eq\n      tag_6\n      jumpi\n    tag_1:\n      0x00\n      dup1\n      revert\n        /* \"Campaign.sol\":736:777  mapping(address => bool) public approvers */\n    tag_2:\n      callvalue\n      dup1\n      iszero\n      tag_14\n      jumpi\n      0x00\n      dup1\n      revert\n    tag_14:\n      pop\n      tag_15\n      0x04\n      dup1\n      calldatasize\n      sub\n      dup2\n      add\n      swap1\n      tag_16\n      swap2\n      swap1\n      tag_17\n      jump\t// in\n    tag_16:\n      tag_18\n      jump\t// in\n    tag_15:\n      mload(0x40)\n      tag_19\n      swap2\n      swap1\n      tag_20\n      jump\t// in\n    tag_19:\n      mload(0x40)\n      dup1\n      swap2\n      sub\n      swap1\n      return\n        /* \"Campaign.sol\":2427:2514  function getRequestsCount() public view returns(uint){... */\n    tag_3:\n      callvalue\n      dup1\n      iszero\n      tag_21\n      jumpi\n      0x00\n      dup1\n      revert\n    tag_21:\n      pop\n      tag_22\n      tag_23\n      jump\t// in\n    tag_22:\n      mload(0x40)\n      tag_24\n      swap2\n      swap1\n      tag_25\n      jump\t// in\n    tag_24:\n      mload(0x40)\n      dup1\n      swap2\n      sub\n      swap1\n      return\n        /* \"Campaign.sol\":2174:2422  function getSummary() public view returns(uint, uint, uint, uint, address){... */\n    tag_4:\n      callvalue\n      dup1\n      iszero\n      tag_26\n      jumpi\n      0x00\n      dup1\n      revert\n    tag_26:\n      pop\n      tag_27\n      tag_28\n      jump\t// in\n    tag_27:\n      mload(0x40)\n      tag_29\n      swap6\n      swap5\n      swap4\n      swap3\n      swap2\n      swap1\n      tag_30\n      jump\t// in\n    tag_29:\n      mload(0x40)\n      dup1\n      swap2\n      sub\n      swap1\n      return\n        /* \"Campaign.sol\":708:730  address public manager */\n    tag_5:\n      callvalue\n      dup1\n      iszero\n      tag_31\n      jumpi\n      0x00\n      dup1\n      revert\n    tag_31:\n      pop\n      tag_32\n      tag_33\n      jump\t// in\n    tag_32:\n      mload(0x40)\n      tag_34\n      swap2\n      swap1\n      tag_35\n      jump\t// in\n    tag_34:\n      mload(0x40)\n      dup1\n      swap2\n      sub\n      swap1\n      return\n        /* \"Campaign.sol\":815:855  mapping(uint => Request) public requests */\n    tag_6:\n      callvalue\n      dup1\n      iszero\n      tag_36\n      jumpi\n      0x00\n      dup1\n      revert\n    tag_36:\n      pop\n      tag_37\n      0x04\n      dup1\n      calldatasize\n      sub\n      dup2\n      add\n      swap1\n      tag_38\n      swap2\n      swap1\n      tag_39\n      jump\t// in\n    tag_38:\n      tag_40\n      jump\t// in\n    tag_37:\n      mload(0x40)\n      tag_41\n      swap6\n      swap5\n      swap4\n      swap3\n      swap2\n      swap1\n      tag_42\n      jump\t// in\n    tag_41:\n      mload(0x40)\n      dup1\n      swap2\n      sub\n      swap1\n      return\n        /* \"Campaign.sol\":783:809  uint public approversCount */\n    tag_7:\n      callvalue\n      dup1\n      iszero\n      tag_43\n      jumpi\n      0x00\n      dup1\n      revert\n    tag_43:\n      pop\n      tag_44\n      tag_45\n      jump\t// in\n    tag_44:\n      mload(0x40)\n      tag_46\n      swap2\n      swap1\n      tag_25\n      jump\t// in\n    tag_46:\n      mload(0x40)\n      dup1\n      swap2\n      sub\n      swap1\n      return\n        /* \"Campaign.sol\":1248:1587  function createRequest(string memory description, uint value, address recipient) public restricted {... */\n    tag_8:\n      callvalue\n      dup1\n      iszero\n      tag_47\n      jumpi\n      0x00\n      dup1\n      revert\n    tag_47:\n      pop\n      tag_48\n      0x04\n      dup1\n      calldatasize\n      sub\n      dup2\n      add\n      swap1\n      tag_49\n      swap2\n      swap1\n      tag_50\n      jump\t// in\n    tag_49:\n      tag_51\n      jump\t// in\n    tag_48:\n      stop\n        /* \"Campaign.sol\":650:681  uint public minimumContribution */\n    tag_9:\n      callvalue\n      dup1\n      iszero\n      tag_52\n      jumpi\n      0x00\n      dup1\n      revert\n    tag_52:\n      pop\n      tag_53\n      tag_54\n      jump\t// in\n    tag_53:\n      mload(0x40)\n      tag_55\n      swap2\n      swap1\n      tag_25\n      jump\t// in\n    tag_55:\n      mload(0x40)\n      dup1\n      swap2\n      sub\n      swap1\n      return\n        /* \"Campaign.sol\":1086:1242  function contribute() public payable {... */\n    tag_10:\n      tag_56\n      tag_57\n      jump\t// in\n    tag_56:\n      stop\n        /* \"Campaign.sol\":1593:1860  function approveRequest(uint index)public {... */\n    tag_11:\n      callvalue\n      dup1\n      iszero\n      tag_58\n      jumpi\n      0x00\n      dup1\n      revert\n    tag_58:\n      pop\n      tag_59\n      0x04\n      dup1\n      calldatasize\n      sub\n      dup2\n      add\n      swap1\n      tag_60\n      swap2\n      swap1\n      tag_39\n      jump\t// in\n    tag_60:\n      tag_61\n      jump\t// in\n    tag_59:\n      stop\n        /* \"Campaign.sol\":1866:2168  function finaliseRequest(uint index)public restricted{... */\n    tag_12:\n      callvalue\n      dup1\n      iszero\n      tag_62\n      jumpi\n      0x00\n      dup1\n      revert\n    tag_62:\n      pop\n      tag_63\n      0x04\n      dup1\n      calldatasize\n      sub\n      dup2\n      add\n      swap1\n      tag_64\n      swap2\n      swap1\n      tag_39\n      jump\t// in\n    tag_64:\n      tag_65\n      jump\t// in\n    tag_63:\n      stop\n        /* \"Campaign.sol\":736:777  mapping(address => bool) public approvers */\n    tag_18:\n      mstore(0x20, 0x03)\n      dup1\n      0x00\n      mstore\n      keccak256(0x00, 0x40)\n      0x00\n      swap2\n      pop\n      sload\n      swap1\n      0x0100\n      exp\n      swap1\n      div\n      0xff\n      and\n      dup2\n      jump\t// out\n        /* \"Campaign.sol\":2427:2514  function getRequestsCount() public view returns(uint){... */\n    tag_23:\n        /* \"Campaign.sol\":2475:2479  uint */\n      0x00\n        /* \"Campaign.sol\":2497:2507  numRequest */\n      sload(0x01)\n        /* \"Campaign.sol\":2490:2507  return numRequest */\n      swap1\n      pop\n        /* \"Campaign.sol\":2427:2514  function getRequestsCount() public view returns(uint){... */\n      swap1\n      jump\t// out\n        /* \"Campaign.sol\":2174:2422  function getSummary() public view returns(uint, uint, uint, uint, address){... */\n    tag_28:\n        /* \"Campaign.sol\":2216:2220  uint */\n      0x00\n        /* \"Campaign.sol\":2222:2226  uint */\n      dup1\n        /* \"Campaign.sol\":2228:2232  uint */\n      0x00\n        /* \"Campaign.sol\":2234:2238  uint */\n      dup1\n        /* \"Campaign.sol\":2240:2247  address */\n      0x00\n        /* \"Campaign.sol\":2278:2297  minimumContribution */\n      dup1\n      sload\n        /* \"Campaign.sol\":2311:2332  address(this).balance */\n      selfbalance\n        /* \"Campaign.sol\":2346:2356  numRequest */\n      sload(0x01)\n        /* \"Campaign.sol\":2370:2384  approversCount */\n      sload(0x04)\n        /* \"Campaign.sol\":2398:2405  manager */\n      0x02\n      0x00\n      swap1\n      sload\n      swap1\n      0x0100\n      exp\n      swap1\n      div\n      0xffffffffffffffffffffffffffffffffffffffff\n      and\n        /* \"Campaign.sol\":2258:2415  return(... */\n      swap5\n      pop\n      swap5\n      pop\n      swap5\n      pop\n      swap5\n      pop\n      swap5\n      pop\n        /* \"Campaign.sol\":2174:2422  function getSummary() public view returns(uint, uint, uint, uint, address){... */\n      swap1\n      swap2\n      swap3\n      swap4\n      swap5\n      jump\t// out\n        /* \"Campaign.sol\":708:730  address public manager */\n    tag_33:\n      0x02\n      0x00\n      swap1\n      sload\n      swap1\n      0x0100\n      exp\n      swap1\n      div\n      0xffffffffffffffffffffffffffffffffffffffff\n      and\n      dup2\n      jump\t// out\n        /* \"Campaign.sol\":815:855  mapping(uint => Request) public requests */\n    tag_40:\n      mstore(0x20, 0x05)\n      dup1\n      0x00\n      mstore\n      keccak256(0x00, 0x40)\n      0x00\n      swap2\n      pop\n      swap1\n      pop\n      dup1\n      0x00\n      add\n      dup1\n      sload\n      tag_68\n      swap1\n      tag_69\n      jump\t// in\n    tag_68:\n      dup1\n      0x1f\n      add\n      0x20\n      dup1\n      swap2\n      div\n      mul\n      0x20\n      add\n      mload(0x40)\n      swap1\n      dup2\n      add\n      0x40\n      mstore\n      dup1\n      swap3\n      swap2\n      swap1\n      dup2\n      dup2\n      mstore\n      0x20\n      add\n      dup3\n      dup1\n      sload\n      tag_70\n      swap1\n      tag_69\n      jump\t// in\n    tag_70:\n      dup1\n      iszero\n      tag_71\n      jumpi\n      dup1\n      0x1f\n      lt\n      tag_72\n      jumpi\n      0x0100\n      dup1\n      dup4\n      sload\n      div\n      mul\n      dup4\n      mstore\n      swap2\n      0x20\n      add\n      swap2\n      jump(tag_71)\n    tag_72:\n      dup3\n      add\n      swap2\n      swap1\n      0x00\n      mstore\n      keccak256(0x00, 0x20)\n      swap1\n    tag_73:\n      dup2\n      sload\n      dup2\n      mstore\n      swap1\n      0x01\n      add\n      swap1\n      0x20\n      add\n      dup1\n      dup4\n      gt\n      tag_73\n      jumpi\n      dup3\n      swap1\n      sub\n      0x1f\n      and\n      dup3\n      add\n      swap2\n    tag_71:\n      pop\n      pop\n      pop\n      pop\n      pop\n      swap1\n      dup1\n      0x01\n      add\n      sload\n      swap1\n      dup1\n      0x02\n      add\n      0x00\n      swap1\n      sload\n      swap1\n      0x0100\n      exp\n      swap1\n      div\n      0xffffffffffffffffffffffffffffffffffffffff\n      and\n      swap1\n      dup1\n      0x02\n      add\n      0x14\n      swap1\n      sload\n      swap1\n      0x0100\n      exp\n      swap1\n      div\n      0xff\n      and\n      swap1\n      dup1\n      0x03\n      add\n      sload\n      swap1\n      pop\n      dup6\n      jump\t// out\n        /* \"Campaign.sol\":783:809  uint public approversCount */\n    tag_45:\n      sload(0x04)\n      dup2\n      jump\t// out\n        /* \"Campaign.sol\":1248:1587  function createRequest(string memory description, uint value, address recipient) public restricted {... */\n    tag_51:\n        /* \"Campaign.sol\":925:932  manager */\n      0x02\n      0x00\n      swap1\n      sload\n      swap1\n      0x0100\n      exp\n      swap1\n      div\n      0xffffffffffffffffffffffffffffffffffffffff\n      and\n        /* \"Campaign.sol\":911:932  msg.sender == manager */\n      0xffffffffffffffffffffffffffffffffffffffff\n      and\n        /* \"Campaign.sol\":911:921  msg.sender */\n      caller\n        /* \"Campaign.sol\":911:932  msg.sender == manager */\n      0xffffffffffffffffffffffffffffffffffffffff\n      and\n      eq\n        /* \"Campaign.sol\":903:933  require(msg.sender == manager) */\n      tag_75\n      jumpi\n      0x00\n      dup1\n      revert\n    tag_75:\n        /* \"Campaign.sol\":1357:1380  Request storage request */\n      0x00\n        /* \"Campaign.sol\":1383:1391  requests */\n      0x05\n        /* \"Campaign.sol\":1383:1405  requests[numRequest++] */\n      0x00\n        /* \"Campaign.sol\":1392:1402  numRequest */\n      0x01\n      0x00\n        /* \"Campaign.sol\":1392:1404  numRequest++ */\n      dup2\n      sload\n      dup1\n      swap3\n      swap2\n      swap1\n      tag_77\n      swap1\n      tag_78\n      jump\t// in\n    tag_77:\n      swap2\n      swap1\n      pop\n      sstore\n        /* \"Campaign.sol\":1383:1405  requests[numRequest++] */\n      dup2\n      mstore\n      0x20\n      add\n      swap1\n      dup2\n      mstore\n      0x20\n      add\n      0x00\n      keccak256\n        /* \"Campaign.sol\":1357:1405  Request storage request = requests[numRequest++] */\n      swap1\n      pop\n        /* \"Campaign.sol\":1437:1448  description */\n      dup4\n        /* \"Campaign.sol\":1416:1423  request */\n      dup2\n        /* \"Campaign.sol\":1416:1435  request.description */\n      0x00\n      add\n        /* \"Campaign.sol\":1416:1448  request.description= description */\n      swap1\n      dup2\n      tag_79\n      swap2\n      swap1\n      tag_80\n      jump\t// in\n    tag_79:\n      pop\n        /* \"Campaign.sol\":1472:1477  value */\n      dup3\n        /* \"Campaign.sol\":1458:1465  request */\n      dup2\n        /* \"Campaign.sol\":1458:1471  request.value */\n      0x01\n      add\n        /* \"Campaign.sol\":1458:1477  request.value=value */\n      dup2\n      swap1\n      sstore\n      pop\n        /* \"Campaign.sol\":1505:1514  recipient */\n      dup2\n        /* \"Campaign.sol\":1487:1494  request */\n      dup2\n        /* \"Campaign.sol\":1487:1504  request.recipient */\n      0x02\n      add\n      0x00\n        /* \"Campaign.sol\":1487:1514  request.recipient=recipient */\n      0x0100\n      exp\n      dup2\n      sload\n      dup2\n      0xffffffffffffffffffffffffffffffffffffffff\n      mul\n      not\n      and\n      swap1\n      dup4\n      0xffffffffffffffffffffffffffffffffffffffff\n      and\n      mul\n      or\n      swap1\n      sstore\n      pop\n        /* \"Campaign.sol\":1541:1546  false */\n      0x00\n        /* \"Campaign.sol\":1524:1531  request */\n      dup2\n        /* \"Campaign.sol\":1524:1540  request.complete */\n      0x02\n      add\n      0x14\n        /* \"Campaign.sol\":1524:1546  request.complete=false */\n      0x0100\n      exp\n      dup2\n      sload\n      dup2\n      0xff\n      mul\n      not\n      and\n      swap1\n      dup4\n      iszero\n      iszero\n      mul\n      or\n      swap1\n      sstore\n      pop\n        /* \"Campaign.sol\":1578:1579  0 */\n      0x00\n        /* \"Campaign.sol\":1556:1563  request */\n      dup2\n        /* \"Campaign.sol\":1556:1577  request.approvalCount */\n      0x03\n      add\n        /* \"Campaign.sol\":1556:1579  request.approvalCount=0 */\n      dup2\n      swap1\n      sstore\n      pop\n        /* \"Campaign.sol\":1347:1587  {... */\n      pop\n        /* \"Campaign.sol\":1248:1587  function createRequest(string memory description, uint value, address recipient) public restricted {... */\n      pop\n      pop\n      pop\n      jump\t// out\n        /* \"Campaign.sol\":650:681  uint public minimumContribution */\n    tag_54:\n      sload(0x00)\n      dup2\n      jump\t// out\n        /* \"Campaign.sol\":1086:1242  function contribute() public payable {... */\n    tag_57:\n        /* \"Campaign.sol\":1153:1172  minimumContribution */\n      sload(0x00)\n        /* \"Campaign.sol\":1141:1150  msg.value */\n      callvalue\n        /* \"Campaign.sol\":1141:1172  msg.value > minimumContribution */\n      gt\n        /* \"Campaign.sol\":1133:1173  require(msg.value > minimumContribution) */\n      tag_82\n      jumpi\n      0x00\n      dup1\n      revert\n    tag_82:\n        /* \"Campaign.sol\":1205:1209  true */\n      0x01\n        /* \"Campaign.sol\":1183:1192  approvers */\n      0x03\n        /* \"Campaign.sol\":1183:1204  approvers[msg.sender] */\n      0x00\n        /* \"Campaign.sol\":1193:1203  msg.sender */\n      caller\n        /* \"Campaign.sol\":1183:1204  approvers[msg.sender] */\n      0xffffffffffffffffffffffffffffffffffffffff\n      and\n      0xffffffffffffffffffffffffffffffffffffffff\n      and\n      dup2\n      mstore\n      0x20\n      add\n      swap1\n      dup2\n      mstore\n      0x20\n      add\n      0x00\n      keccak256\n      0x00\n        /* \"Campaign.sol\":1183:1209  approvers[msg.sender]=true */\n      0x0100\n      exp\n      dup2\n      sload\n      dup2\n      0xff\n      mul\n      not\n      and\n      swap1\n      dup4\n      iszero\n      iszero\n      mul\n      or\n      swap1\n      sstore\n      pop\n        /* \"Campaign.sol\":1219:1233  approversCount */\n      0x04\n      0x00\n        /* \"Campaign.sol\":1219:1235  approversCount++ */\n      dup2\n      sload\n      dup1\n      swap3\n      swap2\n      swap1\n      tag_83\n      swap1\n      tag_78\n      jump\t// in\n    tag_83:\n      swap2\n      swap1\n      pop\n      sstore\n      pop\n        /* \"Campaign.sol\":1086:1242  function contribute() public payable {... */\n      jump\t// out\n        /* \"Campaign.sol\":1593:1860  function approveRequest(uint index)public {... */\n    tag_61:\n        /* \"Campaign.sol\":1645:1668  Request storage request */\n      0x00\n        /* \"Campaign.sol\":1671:1679  requests */\n      0x05\n        /* \"Campaign.sol\":1671:1686  requests[index] */\n      0x00\n        /* \"Campaign.sol\":1680:1685  index */\n      dup4\n        /* \"Campaign.sol\":1671:1686  requests[index] */\n      dup2\n      mstore\n      0x20\n      add\n      swap1\n      dup2\n      mstore\n      0x20\n      add\n      0x00\n      keccak256\n        /* \"Campaign.sol\":1645:1686  Request storage request = requests[index] */\n      swap1\n      pop\n        /* \"Campaign.sol\":1704:1713  approvers */\n      0x03\n        /* \"Campaign.sol\":1704:1725  approvers[msg.sender] */\n      0x00\n        /* \"Campaign.sol\":1714:1724  msg.sender */\n      caller\n        /* \"Campaign.sol\":1704:1725  approvers[msg.sender] */\n      0xffffffffffffffffffffffffffffffffffffffff\n      and\n      0xffffffffffffffffffffffffffffffffffffffff\n      and\n      dup2\n      mstore\n      0x20\n      add\n      swap1\n      dup2\n      mstore\n      0x20\n      add\n      0x00\n      keccak256\n      0x00\n      swap1\n      sload\n      swap1\n      0x0100\n      exp\n      swap1\n      div\n      0xff\n      and\n        /* \"Campaign.sol\":1696:1726  require(approvers[msg.sender]) */\n      tag_85\n      jumpi\n      0x00\n      dup1\n      revert\n    tag_85:\n        /* \"Campaign.sol\":1745:1752  request */\n      dup1\n        /* \"Campaign.sol\":1745:1762  request.approvals */\n      0x04\n      add\n        /* \"Campaign.sol\":1745:1774  request.approvals[msg.sender] */\n      0x00\n        /* \"Campaign.sol\":1763:1773  msg.sender */\n      caller\n        /* \"Campaign.sol\":1745:1774  request.approvals[msg.sender] */\n      0xffffffffffffffffffffffffffffffffffffffff\n      and\n      0xffffffffffffffffffffffffffffffffffffffff\n      and\n      dup2\n      mstore\n      0x20\n      add\n      swap1\n      dup2\n      mstore\n      0x20\n      add\n      0x00\n      keccak256\n      0x00\n      swap1\n      sload\n      swap1\n      0x0100\n      exp\n      swap1\n      div\n      0xff\n      and\n        /* \"Campaign.sol\":1744:1774  !request.approvals[msg.sender] */\n      iszero\n        /* \"Campaign.sol\":1736:1775  require(!request.approvals[msg.sender]) */\n      tag_86\n      jumpi\n      0x00\n      dup1\n      revert\n    tag_86:\n        /* \"Campaign.sol\":1816:1820  true */\n      0x01\n        /* \"Campaign.sol\":1786:1793  request */\n      dup2\n        /* \"Campaign.sol\":1786:1803  request.approvals */\n      0x04\n      add\n        /* \"Campaign.sol\":1786:1815  request.approvals[msg.sender] */\n      0x00\n        /* \"Campaign.sol\":1804:1814  msg.sender */\n      caller\n        /* \"Campaign.sol\":1786:1815  request.approvals[msg.sender] */\n      0xffffffffffffffffffffffffffffffffffffffff\n      and\n      0xffffffffffffffffffffffffffffffffffffffff\n      and\n      dup2\n      mstore\n      0x20\n      add\n      swap1\n      dup2\n      mstore\n      0x20\n      add\n      0x00\n      keccak256\n      0x00\n        /* \"Campaign.sol\":1786:1820  request.approvals[msg.sender]=true */\n      0x0100\n      exp\n      dup2\n      sload\n      dup2\n      0xff\n      mul\n      not\n      and\n      swap1\n      dup4\n      iszero\n      iszero\n      mul\n      or\n      swap1\n      sstore\n      pop\n        /* \"Campaign.sol\":1830:1837  request */\n      dup1\n        /* \"Campaign.sol\":1830:1851  request.approvalCount */\n      0x03\n      add\n      0x00\n        /* \"Campaign.sol\":1830:1853  request.approvalCount++ */\n      dup2\n      sload\n      dup1\n      swap3\n      swap2\n      swap1\n      tag_87\n      swap1\n      tag_78\n      jump\t// in\n    tag_87:\n      swap2\n      swap1\n      pop\n      sstore\n      pop\n        /* \"Campaign.sol\":1635:1860  {... */\n      pop\n        /* \"Campaign.sol\":1593:1860  function approveRequest(uint index)public {... */\n      pop\n      jump\t// out\n        /* \"Campaign.sol\":1866:2168  function finaliseRequest(uint index)public restricted{... */\n    tag_65:\n        /* \"Campaign.sol\":925:932  manager */\n      0x02\n      0x00\n      swap1\n      sload\n      swap1\n      0x0100\n      exp\n      swap1\n      div\n      0xffffffffffffffffffffffffffffffffffffffff\n      and\n        /* \"Campaign.sol\":911:932  msg.sender == manager */\n      0xffffffffffffffffffffffffffffffffffffffff\n      and\n        /* \"Campaign.sol\":911:921  msg.sender */\n      caller\n        /* \"Campaign.sol\":911:932  msg.sender == manager */\n      0xffffffffffffffffffffffffffffffffffffffff\n      and\n      eq\n        /* \"Campaign.sol\":903:933  require(msg.sender == manager) */\n      tag_89\n      jumpi\n      0x00\n      dup1\n      revert\n    tag_89:\n        /* \"Campaign.sol\":1929:1952  Request storage request */\n      0x00\n        /* \"Campaign.sol\":1955:1963  requests */\n      0x05\n        /* \"Campaign.sol\":1955:1970  requests[index] */\n      0x00\n        /* \"Campaign.sol\":1964:1969  index */\n      dup4\n        /* \"Campaign.sol\":1955:1970  requests[index] */\n      dup2\n      mstore\n      0x20\n      add\n      swap1\n      dup2\n      mstore\n      0x20\n      add\n      0x00\n      keccak256\n        /* \"Campaign.sol\":1929:1970  Request storage request = requests[index] */\n      swap1\n      pop\n        /* \"Campaign.sol\":1990:1997  request */\n      dup1\n        /* \"Campaign.sol\":1990:2006  request.complete */\n      0x02\n      add\n      0x14\n      swap1\n      sload\n      swap1\n      0x0100\n      exp\n      swap1\n      div\n      0xff\n      and\n        /* \"Campaign.sol\":1989:2006  !request.complete */\n      iszero\n        /* \"Campaign.sol\":1981:2007  require(!request.complete) */\n      tag_91\n      jumpi\n      0x00\n      dup1\n      revert\n    tag_91:\n        /* \"Campaign.sol\":2065:2066  2 */\n      0x02\n        /* \"Campaign.sol\":2050:2064  approversCount */\n      sload(0x04)\n        /* \"Campaign.sol\":2050:2066  approversCount/2 */\n      tag_92\n      swap2\n      swap1\n      tag_93\n      jump\t// in\n    tag_92:\n        /* \"Campaign.sol\":2025:2032  request */\n      dup2\n        /* \"Campaign.sol\":2025:2046  request.approvalCount */\n      0x03\n      add\n      sload\n        /* \"Campaign.sol\":2025:2067  request.approvalCount > (approversCount/2) */\n      gt\n        /* \"Campaign.sol\":2017:2068  require(request.approvalCount > (approversCount/2)) */\n      tag_94\n      jumpi\n      0x00\n      dup1\n      revert\n    tag_94:\n        /* \"Campaign.sol\":2087:2094  request */\n      dup1\n        /* \"Campaign.sol\":2087:2104  request.recipient */\n      0x02\n      add\n      0x00\n      swap1\n      sload\n      swap1\n      0x0100\n      exp\n      swap1\n      div\n      0xffffffffffffffffffffffffffffffffffffffff\n      and\n        /* \"Campaign.sol\":2079:2114  payable(request.recipient).transfer */\n      0xffffffffffffffffffffffffffffffffffffffff\n      and\n        /* \"Campaign.sol\":2079:2129  payable(request.recipient).transfer(request.value) */\n      0x08fc\n        /* \"Campaign.sol\":2115:2122  request */\n      dup3\n        /* \"Campaign.sol\":2115:2128  request.value */\n      0x01\n      add\n      sload\n        /* \"Campaign.sol\":2079:2129  payable(request.recipient).transfer(request.value) */\n      swap1\n      dup2\n      iszero\n      mul\n      swap1\n      mload(0x40)\n      0x00\n      mload(0x40)\n      dup1\n      dup4\n      sub\n      dup2\n      dup6\n      dup9\n      dup9\n      call\n      swap4\n      pop\n      pop\n      pop\n      pop\n      iszero\n      dup1\n      iszero\n      tag_96\n      jumpi\n      returndatasize\n      0x00\n      dup1\n      returndatacopy\n      revert(0x00, returndatasize)\n    tag_96:\n      pop\n        /* \"Campaign.sol\":2157:2161  true */\n      0x01\n        /* \"Campaign.sol\":2140:2147  request */\n      dup2\n        /* \"Campaign.sol\":2140:2156  request.complete */\n      0x02\n      add\n      0x14\n        /* \"Campaign.sol\":2140:2161  request.complete=true */\n      0x0100\n      exp\n      dup2\n      sload\n      dup2\n      0xff\n      mul\n      not\n      and\n      swap1\n      dup4\n      iszero\n      iszero\n      mul\n      or\n      swap1\n      sstore\n      pop\n        /* \"Campaign.sol\":1919:2168  {... */\n      pop\n        /* \"Campaign.sol\":1866:2168  function finaliseRequest(uint index)public restricted{... */\n      pop\n      jump\t// out\n        /* \"#utility.yul\":7:82   */\n    tag_97:\n        /* \"#utility.yul\":40:46   */\n      0x00\n        /* \"#utility.yul\":73:75   */\n      0x40\n        /* \"#utility.yul\":67:76   */\n      mload\n        /* \"#utility.yul\":57:76   */\n      swap1\n      pop\n        /* \"#utility.yul\":7:82   */\n      swap1\n      jump\t// out\n        /* \"#utility.yul\":88:205   */\n    tag_98:\n        /* \"#utility.yul\":197:198   */\n      0x00\n        /* \"#utility.yul\":194:195   */\n      dup1\n        /* \"#utility.yul\":187:199   */\n      revert\n        /* \"#utility.yul\":211:328   */\n    tag_99:\n        /* \"#utility.yul\":320:321   */\n      0x00\n        /* \"#utility.yul\":317:318   */\n      dup1\n        /* \"#utility.yul\":310:322   */\n      revert\n        /* \"#utility.yul\":334:460   */\n    tag_100:\n        /* \"#utility.yul\":371:378   */\n      0x00\n        /* \"#utility.yul\":411:453   */\n      0xffffffffffffffffffffffffffffffffffffffff\n        /* \"#utility.yul\":404:409   */\n      dup3\n        /* \"#utility.yul\":400:454   */\n      and\n        /* \"#utility.yul\":389:454   */\n      swap1\n      pop\n        /* \"#utility.yul\":334:460   */\n      swap2\n      swap1\n      pop\n      jump\t// out\n        /* \"#utility.yul\":466:562   */\n    tag_101:\n        /* \"#utility.yul\":503:510   */\n      0x00\n        /* \"#utility.yul\":532:556   */\n      tag_149\n        /* \"#utility.yul\":550:555   */\n      dup3\n        /* \"#utility.yul\":532:556   */\n      tag_100\n      jump\t// in\n    tag_149:\n        /* \"#utility.yul\":521:556   */\n      swap1\n      pop\n        /* \"#utility.yul\":466:562   */\n      swap2\n      swap1\n      pop\n      jump\t// out\n        /* \"#utility.yul\":568:690   */\n    tag_102:\n        /* \"#utility.yul\":641:665   */\n      tag_151\n        /* \"#utility.yul\":659:664   */\n      dup2\n        /* \"#utility.yul\":641:665   */\n      tag_101\n      jump\t// in\n    tag_151:\n        /* \"#utility.yul\":634:639   */\n      dup2\n        /* \"#utility.yul\":631:666   */\n      eq\n        /* \"#utility.yul\":621:684   */\n      tag_152\n      jumpi\n        /* \"#utility.yul\":680:681   */\n      0x00\n        /* \"#utility.yul\":677:678   */\n      dup1\n        /* \"#utility.yul\":670:682   */\n      revert\n        /* \"#utility.yul\":621:684   */\n    tag_152:\n        /* \"#utility.yul\":568:690   */\n      pop\n      jump\t// out\n        /* \"#utility.yul\":696:835   */\n    tag_103:\n        /* \"#utility.yul\":742:747   */\n      0x00\n        /* \"#utility.yul\":780:786   */\n      dup2\n        /* \"#utility.yul\":767:787   */\n      calldataload\n        /* \"#utility.yul\":758:787   */\n      swap1\n      pop\n        /* \"#utility.yul\":796:829   */\n      tag_154\n        /* \"#utility.yul\":823:828   */\n      dup2\n        /* \"#utility.yul\":796:829   */\n      tag_102\n      jump\t// in\n    tag_154:\n        /* \"#utility.yul\":696:835   */\n      swap3\n      swap2\n      pop\n      pop\n      jump\t// out\n        /* \"#utility.yul\":841:1170   */\n    tag_17:\n        /* \"#utility.yul\":900:906   */\n      0x00\n        /* \"#utility.yul\":949:951   */\n      0x20\n        /* \"#utility.yul\":937:946   */\n      dup3\n        /* \"#utility.yul\":928:935   */\n      dup5\n        /* \"#utility.yul\":924:947   */\n      sub\n        /* \"#utility.yul\":920:952   */\n      slt\n        /* \"#utility.yul\":917:1036   */\n      iszero\n      tag_156\n      jumpi\n        /* \"#utility.yul\":955:1034   */\n      tag_157\n      tag_98\n      jump\t// in\n    tag_157:\n        /* \"#utility.yul\":917:1036   */\n    tag_156:\n        /* \"#utility.yul\":1075:1076   */\n      0x00\n        /* \"#utility.yul\":1100:1153   */\n      tag_158\n        /* \"#utility.yul\":1145:1152   */\n      dup5\n        /* \"#utility.yul\":1136:1142   */\n      dup3\n        /* \"#utility.yul\":1125:1134   */\n      dup6\n        /* \"#utility.yul\":1121:1143   */\n      add\n        /* \"#utility.yul\":1100:1153   */\n      tag_103\n      jump\t// in\n    tag_158:\n        /* \"#utility.yul\":1090:1153   */\n      swap2\n      pop\n        /* \"#utility.yul\":1046:1163   */\n      pop\n        /* \"#utility.yul\":841:1170   */\n      swap3\n      swap2\n      pop\n      pop\n      jump\t// out\n        /* \"#utility.yul\":1176:1266   */\n    tag_104:\n        /* \"#utility.yul\":1210:1217   */\n      0x00\n        /* \"#utility.yul\":1253:1258   */\n      dup2\n        /* \"#utility.yul\":1246:1259   */\n      iszero\n        /* \"#utility.yul\":1239:1260   */\n      iszero\n        /* \"#utility.yul\":1228:1260   */\n      swap1\n      pop\n        /* \"#utility.yul\":1176:1266   */\n      swap2\n      swap1\n      pop\n      jump\t// out\n        /* \"#utility.yul\":1272:1381   */\n    tag_105:\n        /* \"#utility.yul\":1353:1374   */\n      tag_161\n        /* \"#utility.yul\":1368:1373   */\n      dup2\n        /* \"#utility.yul\":1353:1374   */\n      tag_104\n      jump\t// in\n    tag_161:\n        /* \"#utility.yul\":1348:1351   */\n      dup3\n        /* \"#utility.yul\":1341:1375   */\n      mstore\n        /* \"#utility.yul\":1272:1381   */\n      pop\n      pop\n      jump\t// out\n        /* \"#utility.yul\":1387:1597   */\n    tag_20:\n        /* \"#utility.yul\":1474:1478   */\n      0x00\n        /* \"#utility.yul\":1512:1514   */\n      0x20\n        /* \"#utility.yul\":1501:1510   */\n      dup3\n        /* \"#utility.yul\":1497:1515   */\n      add\n        /* \"#utility.yul\":1489:1515   */\n      swap1\n      pop\n        /* \"#utility.yul\":1525:1590   */\n      tag_163\n        /* \"#utility.yul\":1587:1588   */\n      0x00\n        /* \"#utility.yul\":1576:1585   */\n      dup4\n        /* \"#utility.yul\":1572:1589   */\n      add\n        /* \"#utility.yul\":1563:1569   */\n      dup5\n        /* \"#utility.yul\":1525:1590   */\n      tag_105\n      jump\t// in\n    tag_163:\n        /* \"#utility.yul\":1387:1597   */\n      swap3\n      swap2\n      pop\n      pop\n      jump\t// out\n        /* \"#utility.yul\":1603:1680   */\n    tag_106:\n        /* \"#utility.yul\":1640:1647   */\n      0x00\n        /* \"#utility.yul\":1669:1674   */\n      dup2\n        /* \"#utility.yul\":1658:1674   */\n      swap1\n      pop\n        /* \"#utility.yul\":1603:1680   */\n      swap2\n      swap1\n      pop\n      jump\t// out\n        /* \"#utility.yul\":1686:1804   */\n    tag_107:\n        /* \"#utility.yul\":1773:1797   */\n      tag_166\n        /* \"#utility.yul\":1791:1796   */\n      dup2\n        /* \"#utility.yul\":1773:1797   */\n      tag_106\n      jump\t// in\n    tag_166:\n        /* \"#utility.yul\":1768:1771   */\n      dup3\n        /* \"#utility.yul\":1761:1798   */\n      mstore\n        /* \"#utility.yul\":1686:1804   */\n      pop\n      pop\n      jump\t// out\n        /* \"#utility.yul\":1810:2032   */\n    tag_25:\n        /* \"#utility.yul\":1903:1907   */\n      0x00\n        /* \"#utility.yul\":1941:1943   */\n      0x20\n        /* \"#utility.yul\":1930:1939   */\n      dup3\n        /* \"#utility.yul\":1926:1944   */\n      add\n        /* \"#utility.yul\":1918:1944   */\n      swap1\n      pop\n        /* \"#utility.yul\":1954:2025   */\n      tag_168\n        /* \"#utility.yul\":2022:2023   */\n      0x00\n        /* \"#utility.yul\":2011:2020   */\n      dup4\n        /* \"#utility.yul\":2007:2024   */\n      add\n        /* \"#utility.yul\":1998:2004   */\n      dup5\n        /* \"#utility.yul\":1954:2025   */\n      tag_107\n      jump\t// in\n    tag_168:\n        /* \"#utility.yul\":1810:2032   */\n      swap3\n      swap2\n      pop\n      pop\n      jump\t// out\n        /* \"#utility.yul\":2038:2156   */\n    tag_108:\n        /* \"#utility.yul\":2125:2149   */\n      tag_170\n        /* \"#utility.yul\":2143:2148   */\n      dup2\n        /* \"#utility.yul\":2125:2149   */\n      tag_101\n      jump\t// in\n    tag_170:\n        /* \"#utility.yul\":2120:2123   */\n      dup3\n        /* \"#utility.yul\":2113:2150   */\n      mstore\n        /* \"#utility.yul\":2038:2156   */\n      pop\n      pop\n      jump\t// out\n        /* \"#utility.yul\":2162:2826   */\n    tag_30:\n        /* \"#utility.yul\":2367:2371   */\n      0x00\n        /* \"#utility.yul\":2405:2408   */\n      0xa0\n        /* \"#utility.yul\":2394:2403   */\n      dup3\n        /* \"#utility.yul\":2390:2409   */\n      add\n        /* \"#utility.yul\":2382:2409   */\n      swap1\n      pop\n        /* \"#utility.yul\":2419:2490   */\n      tag_172\n        /* \"#utility.yul\":2487:2488   */\n      0x00\n        /* \"#utility.yul\":2476:2485   */\n      dup4\n        /* \"#utility.yul\":2472:2489   */\n      add\n        /* \"#utility.yul\":2463:2469   */\n      dup9\n        /* \"#utility.yul\":2419:2490   */\n      tag_107\n      jump\t// in\n    tag_172:\n        /* \"#utility.yul\":2500:2572   */\n      tag_173\n        /* \"#utility.yul\":2568:2570   */\n      0x20\n        /* \"#utility.yul\":2557:2566   */\n      dup4\n        /* \"#utility.yul\":2553:2571   */\n      add\n        /* \"#utility.yul\":2544:2550   */\n      dup8\n        /* \"#utility.yul\":2500:2572   */\n      tag_107\n      jump\t// in\n    tag_173:\n        /* \"#utility.yul\":2582:2654   */\n      tag_174\n        /* \"#utility.yul\":2650:2652   */\n      0x40\n        /* \"#utility.yul\":2639:2648   */\n      dup4\n        /* \"#utility.yul\":2635:2653   */\n      add\n        /* \"#utility.yul\":2626:2632   */\n      dup7\n        /* \"#utility.yul\":2582:2654   */\n      tag_107\n      jump\t// in\n    tag_174:\n        /* \"#utility.yul\":2664:2736   */\n      tag_175\n        /* \"#utility.yul\":2732:2734   */\n      0x60\n        /* \"#utility.yul\":2721:2730   */\n      dup4\n        /* \"#utility.yul\":2717:2735   */\n      add\n        /* \"#utility.yul\":2708:2714   */\n      dup6\n        /* \"#utility.yul\":2664:2736   */\n      tag_107\n      jump\t// in\n    tag_175:\n        /* \"#utility.yul\":2746:2819   */\n      tag_176\n        /* \"#utility.yul\":2814:2817   */\n      0x80\n        /* \"#utility.yul\":2803:2812   */\n      dup4\n        /* \"#utility.yul\":2799:2818   */\n      add\n        /* \"#utility.yul\":2790:2796   */\n      dup5\n        /* \"#utility.yul\":2746:2819   */\n      tag_108\n      jump\t// in\n    tag_176:\n        /* \"#utility.yul\":2162:2826   */\n      swap7\n      swap6\n      pop\n      pop\n      pop\n      pop\n      pop\n      pop\n      jump\t// out\n        /* \"#utility.yul\":2832:3054   */\n    tag_35:\n        /* \"#utility.yul\":2925:2929   */\n      0x00\n        /* \"#utility.yul\":2963:2965   */\n      0x20\n        /* \"#utility.yul\":2952:2961   */\n      dup3\n        /* \"#utility.yul\":2948:2966   */\n      add\n        /* \"#utility.yul\":2940:2966   */\n      swap1\n      pop\n        /* \"#utility.yul\":2976:3047   */\n      tag_178\n        /* \"#utility.yul\":3044:3045   */\n      0x00\n        /* \"#utility.yul\":3033:3042   */\n      dup4\n        /* \"#utility.yul\":3029:3046   */\n      add\n        /* \"#utility.yul\":3020:3026   */\n      dup5\n        /* \"#utility.yul\":2976:3047   */\n      tag_108\n      jump\t// in\n    tag_178:\n        /* \"#utility.yul\":2832:3054   */\n      swap3\n      swap2\n      pop\n      pop\n      jump\t// out\n        /* \"#utility.yul\":3060:3182   */\n    tag_109:\n        /* \"#utility.yul\":3133:3157   */\n      tag_180\n        /* \"#utility.yul\":3151:3156   */\n      dup2\n        /* \"#utility.yul\":3133:3157   */\n      tag_106\n      jump\t// in\n    tag_180:\n        /* \"#utility.yul\":3126:3131   */\n      dup2\n        /* \"#utility.yul\":3123:3158   */\n      eq\n        /* \"#utility.yul\":3113:3176   */\n      tag_181\n      jumpi\n        /* \"#utility.yul\":3172:3173   */\n      0x00\n        /* \"#utility.yul\":3169:3170   */\n      dup1\n        /* \"#utility.yul\":3162:3174   */\n      revert\n        /* \"#utility.yul\":3113:3176   */\n    tag_181:\n        /* \"#utility.yul\":3060:3182   */\n      pop\n      jump\t// out\n        /* \"#utility.yul\":3188:3327   */\n    tag_110:\n        /* \"#utility.yul\":3234:3239   */\n      0x00\n        /* \"#utility.yul\":3272:3278   */\n      dup2\n        /* \"#utility.yul\":3259:3279   */\n      calldataload\n        /* \"#utility.yul\":3250:3279   */\n      swap1\n      pop\n        /* \"#utility.yul\":3288:3321   */\n      tag_183\n        /* \"#utility.yul\":3315:3320   */\n      dup2\n        /* \"#utility.yul\":3288:3321   */\n      tag_109\n      jump\t// in\n    tag_183:\n        /* \"#utility.yul\":3188:3327   */\n      swap3\n      swap2\n      pop\n      pop\n      jump\t// out\n        /* \"#utility.yul\":3333:3662   */\n    tag_39:\n        /* \"#utility.yul\":3392:3398   */\n      0x00\n        /* \"#utility.yul\":3441:3443   */\n      0x20\n        /* \"#utility.yul\":3429:3438   */\n      dup3\n        /* \"#utility.yul\":3420:3427   */\n      dup5\n        /* \"#utility.yul\":3416:3439   */\n      sub\n        /* \"#utility.yul\":3412:3444   */\n      slt\n        /* \"#utility.yul\":3409:3528   */\n      iszero\n      tag_185\n      jumpi\n        /* \"#utility.yul\":3447:3526   */\n      tag_186\n      tag_98\n      jump\t// in\n    tag_186:\n        /* \"#utility.yul\":3409:3528   */\n    tag_185:\n        /* \"#utility.yul\":3567:3568   */\n      0x00\n        /* \"#utility.yul\":3592:3645   */\n      tag_187\n        /* \"#utility.yul\":3637:3644   */\n      dup5\n        /* \"#utility.yul\":3628:3634   */\n      dup3\n        /* \"#utility.yul\":3617:3626   */\n      dup6\n        /* \"#utility.yul\":3613:3635   */\n      add\n        /* \"#utility.yul\":3592:3645   */\n      tag_110\n      jump\t// in\n    tag_187:\n        /* \"#utility.yul\":3582:3645   */\n      swap2\n      pop\n        /* \"#utility.yul\":3538:3655   */\n      pop\n        /* \"#utility.yul\":3333:3662   */\n      swap3\n      swap2\n      pop\n      pop\n      jump\t// out\n        /* \"#utility.yul\":3668:3767   */\n    tag_111:\n        /* \"#utility.yul\":3720:3726   */\n      0x00\n        /* \"#utility.yul\":3754:3759   */\n      dup2\n        /* \"#utility.yul\":3748:3760   */\n      mload\n        /* \"#utility.yul\":3738:3760   */\n      swap1\n      pop\n        /* \"#utility.yul\":3668:3767   */\n      swap2\n      swap1\n      pop\n      jump\t// out\n        /* \"#utility.yul\":3773:3942   */\n    tag_112:\n        /* \"#utility.yul\":3857:3868   */\n      0x00\n        /* \"#utility.yul\":3891:3897   */\n      dup3\n        /* \"#utility.yul\":3886:3889   */\n      dup3\n        /* \"#utility.yul\":3879:3898   */\n      mstore\n        /* \"#utility.yul\":3931:3935   */\n      0x20\n        /* \"#utility.yul\":3926:3929   */\n      dup3\n        /* \"#utility.yul\":3922:3936   */\n      add\n        /* \"#utility.yul\":3907:3936   */\n      swap1\n      pop\n        /* \"#utility.yul\":3773:3942   */\n      swap3\n      swap2\n      pop\n      pop\n      jump\t// out\n        /* \"#utility.yul\":3948:4194   */\n    tag_113:\n        /* \"#utility.yul\":4029:4030   */\n      0x00\n        /* \"#utility.yul\":4039:4152   */\n    tag_191:\n        /* \"#utility.yul\":4053:4059   */\n      dup4\n        /* \"#utility.yul\":4050:4051   */\n      dup2\n        /* \"#utility.yul\":4047:4060   */\n      lt\n        /* \"#utility.yul\":4039:4152   */\n      iszero\n      tag_193\n      jumpi\n        /* \"#utility.yul\":4138:4139   */\n      dup1\n        /* \"#utility.yul\":4133:4136   */\n      dup3\n        /* \"#utility.yul\":4129:4140   */\n      add\n        /* \"#utility.yul\":4123:4141   */\n      mload\n        /* \"#utility.yul\":4119:4120   */\n      dup2\n        /* \"#utility.yul\":4114:4117   */\n      dup5\n        /* \"#utility.yul\":4110:4121   */\n      add\n        /* \"#utility.yul\":4103:4142   */\n      mstore\n        /* \"#utility.yul\":4075:4077   */\n      0x20\n        /* \"#utility.yul\":4072:4073   */\n      dup2\n        /* \"#utility.yul\":4068:4078   */\n      add\n        /* \"#utility.yul\":4063:4078   */\n      swap1\n      pop\n        /* \"#utility.yul\":4039:4152   */\n      jump(tag_191)\n    tag_193:\n        /* \"#utility.yul\":4186:4187   */\n      0x00\n        /* \"#utility.yul\":4177:4183   */\n      dup5\n        /* \"#utility.yul\":4172:4175   */\n      dup5\n        /* \"#utility.yul\":4168:4184   */\n      add\n        /* \"#utility.yul\":4161:4188   */\n      mstore\n        /* \"#utility.yul\":4010:4194   */\n      pop\n        /* \"#utility.yul\":3948:4194   */\n      pop\n      pop\n      pop\n      jump\t// out\n        /* \"#utility.yul\":4200:4302   */\n    tag_114:\n        /* \"#utility.yul\":4241:4247   */\n      0x00\n        /* \"#utility.yul\":4292:4294   */\n      0x1f\n        /* \"#utility.yul\":4288:4295   */\n      not\n        /* \"#utility.yul\":4283:4285   */\n      0x1f\n        /* \"#utility.yul\":4276:4281   */\n      dup4\n        /* \"#utility.yul\":4272:4286   */\n      add\n        /* \"#utility.yul\":4268:4296   */\n      and\n        /* \"#utility.yul\":4258:4296   */\n      swap1\n      pop\n        /* \"#utility.yul\":4200:4302   */\n      swap2\n      swap1\n      pop\n      jump\t// out\n        /* \"#utility.yul\":4308:4685   */\n    tag_115:\n        /* \"#utility.yul\":4396:4399   */\n      0x00\n        /* \"#utility.yul\":4424:4463   */\n      tag_196\n        /* \"#utility.yul\":4457:4462   */\n      dup3\n        /* \"#utility.yul\":4424:4463   */\n      tag_111\n      jump\t// in\n    tag_196:\n        /* \"#utility.yul\":4479:4550   */\n      tag_197\n        /* \"#utility.yul\":4543:4549   */\n      dup2\n        /* \"#utility.yul\":4538:4541   */\n      dup6\n        /* \"#utility.yul\":4479:4550   */\n      tag_112\n      jump\t// in\n    tag_197:\n        /* \"#utility.yul\":4472:4550   */\n      swap4\n      pop\n        /* \"#utility.yul\":4559:4624   */\n      tag_198\n        /* \"#utility.yul\":4617:4623   */\n      dup2\n        /* \"#utility.yul\":4612:4615   */\n      dup6\n        /* \"#utility.yul\":4605:4609   */\n      0x20\n        /* \"#utility.yul\":4598:4603   */\n      dup7\n        /* \"#utility.yul\":4594:4610   */\n      add\n        /* \"#utility.yul\":4559:4624   */\n      tag_113\n      jump\t// in\n    tag_198:\n        /* \"#utility.yul\":4649:4678   */\n      tag_199\n        /* \"#utility.yul\":4671:4677   */\n      dup2\n        /* \"#utility.yul\":4649:4678   */\n      tag_114\n      jump\t// in\n    tag_199:\n        /* \"#utility.yul\":4644:4647   */\n      dup5\n        /* \"#utility.yul\":4640:4679   */\n      add\n        /* \"#utility.yul\":4633:4679   */\n      swap2\n      pop\n        /* \"#utility.yul\":4400:4685   */\n      pop\n        /* \"#utility.yul\":4308:4685   */\n      swap3\n      swap2\n      pop\n      pop\n      jump\t// out\n        /* \"#utility.yul\":4691:5434   */\n    tag_42:\n        /* \"#utility.yul\":4910:4914   */\n      0x00\n        /* \"#utility.yul\":4948:4951   */\n      0xa0\n        /* \"#utility.yul\":4937:4946   */\n      dup3\n        /* \"#utility.yul\":4933:4952   */\n      add\n        /* \"#utility.yul\":4925:4952   */\n      swap1\n      pop\n        /* \"#utility.yul\":4998:5007   */\n      dup2\n        /* \"#utility.yul\":4992:4996   */\n      dup2\n        /* \"#utility.yul\":4988:5008   */\n      sub\n        /* \"#utility.yul\":4984:4985   */\n      0x00\n        /* \"#utility.yul\":4973:4982   */\n      dup4\n        /* \"#utility.yul\":4969:4986   */\n      add\n        /* \"#utility.yul\":4962:5009   */\n      mstore\n        /* \"#utility.yul\":5026:5104   */\n      tag_201\n        /* \"#utility.yul\":5099:5103   */\n      dup2\n        /* \"#utility.yul\":5090:5096   */\n      dup9\n        /* \"#utility.yul\":5026:5104   */\n      tag_115\n      jump\t// in\n    tag_201:\n        /* \"#utility.yul\":5018:5104   */\n      swap1\n      pop\n        /* \"#utility.yul\":5114:5186   */\n      tag_202\n        /* \"#utility.yul\":5182:5184   */\n      0x20\n        /* \"#utility.yul\":5171:5180   */\n      dup4\n        /* \"#utility.yul\":5167:5185   */\n      add\n        /* \"#utility.yul\":5158:5164   */\n      dup8\n        /* \"#utility.yul\":5114:5186   */\n      tag_107\n      jump\t// in\n    tag_202:\n        /* \"#utility.yul\":5196:5268   */\n      tag_203\n        /* \"#utility.yul\":5264:5266   */\n      0x40\n        /* \"#utility.yul\":5253:5262   */\n      dup4\n        /* \"#utility.yul\":5249:5267   */\n      add\n        /* \"#utility.yul\":5240:5246   */\n      dup7\n        /* \"#utility.yul\":5196:5268   */\n      tag_108\n      jump\t// in\n    tag_203:\n        /* \"#utility.yul\":5278:5344   */\n      tag_204\n        /* \"#utility.yul\":5340:5342   */\n      0x60\n        /* \"#utility.yul\":5329:5338   */\n      dup4\n        /* \"#utility.yul\":5325:5343   */\n      add\n        /* \"#utility.yul\":5316:5322   */\n      dup6\n        /* \"#utility.yul\":5278:5344   */\n      tag_105\n      jump\t// in\n    tag_204:\n        /* \"#utility.yul\":5354:5427   */\n      tag_205\n        /* \"#utility.yul\":5422:5425   */\n      0x80\n        /* \"#utility.yul\":5411:5420   */\n      dup4\n        /* \"#utility.yul\":5407:5426   */\n      add\n        /* \"#utility.yul\":5398:5404   */\n      dup5\n        /* \"#utility.yul\":5354:5427   */\n      tag_107\n      jump\t// in\n    tag_205:\n        /* \"#utility.yul\":4691:5434   */\n      swap7\n      swap6\n      pop\n      pop\n      pop\n      pop\n      pop\n      pop\n      jump\t// out\n        /* \"#utility.yul\":5440:5557   */\n    tag_116:\n        /* \"#utility.yul\":5549:5550   */\n      0x00\n        /* \"#utility.yul\":5546:5547   */\n      dup1\n        /* \"#utility.yul\":5539:5551   */\n      revert\n        /* \"#utility.yul\":5563:5680   */\n    tag_117:\n        /* \"#utility.yul\":5672:5673   */\n      0x00\n        /* \"#utility.yul\":5669:5670   */\n      dup1\n        /* \"#utility.yul\":5662:5674   */\n      revert\n        /* \"#utility.yul\":5686:5866   */\n    tag_118:\n        /* \"#utility.yul\":5734:5811   */\n      0x4e487b7100000000000000000000000000000000000000000000000000000000\n        /* \"#utility.yul\":5731:5732   */\n      0x00\n        /* \"#utility.yul\":5724:5812   */\n      mstore\n        /* \"#utility.yul\":5831:5835   */\n      0x41\n        /* \"#utility.yul\":5828:5829   */\n      0x04\n        /* \"#utility.yul\":5821:5836   */\n      mstore\n        /* \"#utility.yul\":5855:5859   */\n      0x24\n        /* \"#utility.yul\":5852:5853   */\n      0x00\n        /* \"#utility.yul\":5845:5860   */\n      revert\n        /* \"#utility.yul\":5872:6153   */\n    tag_119:\n        /* \"#utility.yul\":5955:5982   */\n      tag_210\n        /* \"#utility.yul\":5977:5981   */\n      dup3\n        /* \"#utility.yul\":5955:5982   */\n      tag_114\n      jump\t// in\n    tag_210:\n        /* \"#utility.yul\":5947:5953   */\n      dup2\n        /* \"#utility.yul\":5943:5983   */\n      add\n        /* \"#utility.yul\":6085:6091   */\n      dup2\n        /* \"#utility.yul\":6073:6083   */\n      dup2\n        /* \"#utility.yul\":6070:6092   */\n      lt\n        /* \"#utility.yul\":6049:6067   */\n      0xffffffffffffffff\n        /* \"#utility.yul\":6037:6047   */\n      dup3\n        /* \"#utility.yul\":6034:6068   */\n      gt\n        /* \"#utility.yul\":6031:6093   */\n      or\n        /* \"#utility.yul\":6028:6116   */\n      iszero\n      tag_211\n      jumpi\n        /* \"#utility.yul\":6096:6114   */\n      tag_212\n      tag_118\n      jump\t// in\n    tag_212:\n        /* \"#utility.yul\":6028:6116   */\n    tag_211:\n        /* \"#utility.yul\":6136:6146   */\n      dup1\n        /* \"#utility.yul\":6132:6134   */\n      0x40\n        /* \"#utility.yul\":6125:6147   */\n      mstore\n        /* \"#utility.yul\":5915:6153   */\n      pop\n        /* \"#utility.yul\":5872:6153   */\n      pop\n      pop\n      jump\t// out\n        /* \"#utility.yul\":6159:6288   */\n    tag_120:\n        /* \"#utility.yul\":6193:6199   */\n      0x00\n        /* \"#utility.yul\":6220:6240   */\n      tag_214\n      tag_97\n      jump\t// in\n    tag_214:\n        /* \"#utility.yul\":6210:6240   */\n      swap1\n      pop\n        /* \"#utility.yul\":6249:6282   */\n      tag_215\n        /* \"#utility.yul\":6277:6281   */\n      dup3\n        /* \"#utility.yul\":6269:6275   */\n      dup3\n        /* \"#utility.yul\":6249:6282   */\n      tag_119\n      jump\t// in\n    tag_215:\n        /* \"#utility.yul\":6159:6288   */\n      swap2\n      swap1\n      pop\n      jump\t// out\n        /* \"#utility.yul\":6294:6602   */\n    tag_121:\n        /* \"#utility.yul\":6356:6360   */\n      0x00\n        /* \"#utility.yul\":6446:6464   */\n      0xffffffffffffffff\n        /* \"#utility.yul\":6438:6444   */\n      dup3\n        /* \"#utility.yul\":6435:6465   */\n      gt\n        /* \"#utility.yul\":6432:6488   */\n      iszero\n      tag_217\n      jumpi\n        /* \"#utility.yul\":6468:6486   */\n      tag_218\n      tag_118\n      jump\t// in\n    tag_218:\n        /* \"#utility.yul\":6432:6488   */\n    tag_217:\n        /* \"#utility.yul\":6506:6535   */\n      tag_219\n        /* \"#utility.yul\":6528:6534   */\n      dup3\n        /* \"#utility.yul\":6506:6535   */\n      tag_114\n      jump\t// in\n    tag_219:\n        /* \"#utility.yul\":6498:6535   */\n      swap1\n      pop\n        /* \"#utility.yul\":6590:6594   */\n      0x20\n        /* \"#utility.yul\":6584:6588   */\n      dup2\n        /* \"#utility.yul\":6580:6595   */\n      add\n        /* \"#utility.yul\":6572:6595   */\n      swap1\n      pop\n        /* \"#utility.yul\":6294:6602   */\n      swap2\n      swap1\n      pop\n      jump\t// out\n        /* \"#utility.yul\":6608:6754   */\n    tag_122:\n        /* \"#utility.yul\":6705:6711   */\n      dup3\n        /* \"#utility.yul\":6700:6703   */\n      dup2\n        /* \"#utility.yul\":6695:6698   */\n      dup4\n        /* \"#utility.yul\":6682:6712   */\n      calldatacopy\n        /* \"#utility.yul\":6746:6747   */\n      0x00\n        /* \"#utility.yul\":6737:6743   */\n      dup4\n        /* \"#utility.yul\":6732:6735   */\n      dup4\n        /* \"#utility.yul\":6728:6744   */\n      add\n        /* \"#utility.yul\":6721:6748   */\n      mstore\n        /* \"#utility.yul\":6608:6754   */\n      pop\n      pop\n      pop\n      jump\t// out\n        /* \"#utility.yul\":6760:7185   */\n    tag_123:\n        /* \"#utility.yul\":6838:6843   */\n      0x00\n        /* \"#utility.yul\":6863:6929   */\n      tag_222\n        /* \"#utility.yul\":6879:6928   */\n      tag_223\n        /* \"#utility.yul\":6921:6927   */\n      dup5\n        /* \"#utility.yul\":6879:6928   */\n      tag_121\n      jump\t// in\n    tag_223:\n        /* \"#utility.yul\":6863:6929   */\n      tag_120\n      jump\t// in\n    tag_222:\n        /* \"#utility.yul\":6854:6929   */\n      swap1\n      pop\n        /* \"#utility.yul\":6952:6958   */\n      dup3\n        /* \"#utility.yul\":6945:6950   */\n      dup2\n        /* \"#utility.yul\":6938:6959   */\n      mstore\n        /* \"#utility.yul\":6990:6994   */\n      0x20\n        /* \"#utility.yul\":6983:6988   */\n      dup2\n        /* \"#utility.yul\":6979:6995   */\n      add\n        /* \"#utility.yul\":7028:7031   */\n      dup5\n        /* \"#utility.yul\":7019:7025   */\n      dup5\n        /* \"#utility.yul\":7014:7017   */\n      dup5\n        /* \"#utility.yul\":7010:7026   */\n      add\n        /* \"#utility.yul\":7007:7032   */\n      gt\n        /* \"#utility.yul\":7004:7116   */\n      iszero\n      tag_224\n      jumpi\n        /* \"#utility.yul\":7035:7114   */\n      tag_225\n      tag_117\n      jump\t// in\n    tag_225:\n        /* \"#utility.yul\":7004:7116   */\n    tag_224:\n        /* \"#utility.yul\":7125:7179   */\n      tag_226\n        /* \"#utility.yul\":7172:7178   */\n      dup5\n        /* \"#utility.yul\":7167:7170   */\n      dup3\n        /* \"#utility.yul\":7162:7165   */\n      dup6\n        /* \"#utility.yul\":7125:7179   */\n      tag_122\n      jump\t// in\n    tag_226:\n        /* \"#utility.yul\":6844:7185   */\n      pop\n        /* \"#utility.yul\":6760:7185   */\n      swap4\n      swap3\n      pop\n      pop\n      pop\n      jump\t// out\n        /* \"#utility.yul\":7205:7545   */\n    tag_124:\n        /* \"#utility.yul\":7261:7266   */\n      0x00\n        /* \"#utility.yul\":7310:7313   */\n      dup3\n        /* \"#utility.yul\":7303:7307   */\n      0x1f\n        /* \"#utility.yul\":7295:7301   */\n      dup4\n        /* \"#utility.yul\":7291:7308   */\n      add\n        /* \"#utility.yul\":7287:7314   */\n      slt\n        /* \"#utility.yul\":7277:7399   */\n      tag_228\n      jumpi\n        /* \"#utility.yul\":7318:7397   */\n      tag_229\n      tag_116\n      jump\t// in\n    tag_229:\n        /* \"#utility.yul\":7277:7399   */\n    tag_228:\n        /* \"#utility.yul\":7435:7441   */\n      dup2\n        /* \"#utility.yul\":7422:7442   */\n      calldataload\n        /* \"#utility.yul\":7460:7539   */\n      tag_230\n        /* \"#utility.yul\":7535:7538   */\n      dup5\n        /* \"#utility.yul\":7527:7533   */\n      dup3\n        /* \"#utility.yul\":7520:7524   */\n      0x20\n        /* \"#utility.yul\":7512:7518   */\n      dup7\n        /* \"#utility.yul\":7508:7525   */\n      add\n        /* \"#utility.yul\":7460:7539   */\n      tag_123\n      jump\t// in\n    tag_230:\n        /* \"#utility.yul\":7451:7539   */\n      swap2\n      pop\n        /* \"#utility.yul\":7267:7545   */\n      pop\n        /* \"#utility.yul\":7205:7545   */\n      swap3\n      swap2\n      pop\n      pop\n      jump\t// out\n        /* \"#utility.yul\":7551:8350   */\n    tag_50:\n        /* \"#utility.yul\":7638:7644   */\n      0x00\n        /* \"#utility.yul\":7646:7652   */\n      dup1\n        /* \"#utility.yul\":7654:7660   */\n      0x00\n        /* \"#utility.yul\":7703:7705   */\n      0x60\n        /* \"#utility.yul\":7691:7700   */\n      dup5\n        /* \"#utility.yul\":7682:7689   */\n      dup7\n        /* \"#utility.yul\":7678:7701   */\n      sub\n        /* \"#utility.yul\":7674:7706   */\n      slt\n        /* \"#utility.yul\":7671:7790   */\n      iszero\n      tag_232\n      jumpi\n        /* \"#utility.yul\":7709:7788   */\n      tag_233\n      tag_98\n      jump\t// in\n    tag_233:\n        /* \"#utility.yul\":7671:7790   */\n    tag_232:\n        /* \"#utility.yul\":7857:7858   */\n      0x00\n        /* \"#utility.yul\":7846:7855   */\n      dup5\n        /* \"#utility.yul\":7842:7859   */\n      add\n        /* \"#utility.yul\":7829:7860   */\n      calldataload\n        /* \"#utility.yul\":7887:7905   */\n      0xffffffffffffffff\n        /* \"#utility.yul\":7879:7885   */\n      dup2\n        /* \"#utility.yul\":7876:7906   */\n      gt\n        /* \"#utility.yul\":7873:7990   */\n      iszero\n      tag_234\n      jumpi\n        /* \"#utility.yul\":7909:7988   */\n      tag_235\n      tag_99\n      jump\t// in\n    tag_235:\n        /* \"#utility.yul\":7873:7990   */\n    tag_234:\n        /* \"#utility.yul\":8014:8077   */\n      tag_236\n        /* \"#utility.yul\":8069:8076   */\n      dup7\n        /* \"#utility.yul\":8060:8066   */\n      dup3\n        /* \"#utility.yul\":8049:8058   */\n      dup8\n        /* \"#utility.yul\":8045:8067   */\n      add\n        /* \"#utility.yul\":8014:8077   */\n      tag_124\n      jump\t// in\n    tag_236:\n        /* \"#utility.yul\":8004:8077   */\n      swap4\n      pop\n        /* \"#utility.yul\":7800:8087   */\n      pop\n        /* \"#utility.yul\":8126:8128   */\n      0x20\n        /* \"#utility.yul\":8152:8205   */\n      tag_237\n        /* \"#utility.yul\":8197:8204   */\n      dup7\n        /* \"#utility.yul\":8188:8194   */\n      dup3\n        /* \"#utility.yul\":8177:8186   */\n      dup8\n        /* \"#utility.yul\":8173:8195   */\n      add\n        /* \"#utility.yul\":8152:8205   */\n      tag_110\n      jump\t// in\n    tag_237:\n        /* \"#utility.yul\":8142:8205   */\n      swap3\n      pop\n        /* \"#utility.yul\":8097:8215   */\n      pop\n        /* \"#utility.yul\":8254:8256   */\n      0x40\n        /* \"#utility.yul\":8280:8333   */\n      tag_238\n        /* \"#utility.yul\":8325:8332   */\n      dup7\n        /* \"#utility.yul\":8316:8322   */\n      dup3\n        /* \"#utility.yul\":8305:8314   */\n      dup8\n        /* \"#utility.yul\":8301:8323   */\n      add\n        /* \"#utility.yul\":8280:8333   */\n      tag_103\n      jump\t// in\n    tag_238:\n        /* \"#utility.yul\":8270:8333   */\n      swap2\n      pop\n        /* \"#utility.yul\":8225:8343   */\n      pop\n        /* \"#utility.yul\":7551:8350   */\n      swap3\n      pop\n      swap3\n      pop\n      swap3\n      jump\t// out\n        /* \"#utility.yul\":8356:8536   */\n    tag_125:\n        /* \"#utility.yul\":8404:8481   */\n      0x4e487b7100000000000000000000000000000000000000000000000000000000\n        /* \"#utility.yul\":8401:8402   */\n      0x00\n        /* \"#utility.yul\":8394:8482   */\n      mstore\n        /* \"#utility.yul\":8501:8505   */\n      0x22\n        /* \"#utility.yul\":8498:8499   */\n      0x04\n        /* \"#utility.yul\":8491:8506   */\n      mstore\n        /* \"#utility.yul\":8525:8529   */\n      0x24\n        /* \"#utility.yul\":8522:8523   */\n      0x00\n        /* \"#utility.yul\":8515:8530   */\n      revert\n        /* \"#utility.yul\":8542:8862   */\n    tag_69:\n        /* \"#utility.yul\":8586:8592   */\n      0x00\n        /* \"#utility.yul\":8623:8624   */\n      0x02\n        /* \"#utility.yul\":8617:8621   */\n      dup3\n        /* \"#utility.yul\":8613:8625   */\n      div\n        /* \"#utility.yul\":8603:8625   */\n      swap1\n      pop\n        /* \"#utility.yul\":8670:8671   */\n      0x01\n        /* \"#utility.yul\":8664:8668   */\n      dup3\n        /* \"#utility.yul\":8660:8672   */\n      and\n        /* \"#utility.yul\":8691:8709   */\n      dup1\n        /* \"#utility.yul\":8681:8762   */\n      tag_241\n      jumpi\n        /* \"#utility.yul\":8747:8751   */\n      0x7f\n        /* \"#utility.yul\":8739:8745   */\n      dup3\n        /* \"#utility.yul\":8735:8752   */\n      and\n        /* \"#utility.yul\":8725:8752   */\n      swap2\n      pop\n        /* \"#utility.yul\":8681:8762   */\n    tag_241:\n        /* \"#utility.yul\":8809:8811   */\n      0x20\n        /* \"#utility.yul\":8801:8807   */\n      dup3\n        /* \"#utility.yul\":8798:8812   */\n      lt\n        /* \"#utility.yul\":8778:8796   */\n      dup2\n        /* \"#utility.yul\":8775:8813   */\n      sub\n        /* \"#utility.yul\":8772:8856   */\n      tag_242\n      jumpi\n        /* \"#utility.yul\":8828:8846   */\n      tag_243\n      tag_125\n      jump\t// in\n    tag_243:\n        /* \"#utility.yul\":8772:8856   */\n    tag_242:\n        /* \"#utility.yul\":8593:8862   */\n      pop\n        /* \"#utility.yul\":8542:8862   */\n      swap2\n      swap1\n      pop\n      jump\t// out\n        /* \"#utility.yul\":8868:9048   */\n    tag_126:\n        /* \"#utility.yul\":8916:8993   */\n      0x4e487b7100000000000000000000000000000000000000000000000000000000\n        /* \"#utility.yul\":8913:8914   */\n      0x00\n        /* \"#utility.yul\":8906:8994   */\n      mstore\n        /* \"#utility.yul\":9013:9017   */\n      0x11\n        /* \"#utility.yul\":9010:9011   */\n      0x04\n        /* \"#utility.yul\":9003:9018   */\n      mstore\n        /* \"#utility.yul\":9037:9041   */\n      0x24\n        /* \"#utility.yul\":9034:9035   */\n      0x00\n        /* \"#utility.yul\":9027:9042   */\n      revert\n        /* \"#utility.yul\":9054:9287   */\n    tag_78:\n        /* \"#utility.yul\":9093:9096   */\n      0x00\n        /* \"#utility.yul\":9116:9140   */\n      tag_246\n        /* \"#utility.yul\":9134:9139   */\n      dup3\n        /* \"#utility.yul\":9116:9140   */\n      tag_106\n      jump\t// in\n    tag_246:\n        /* \"#utility.yul\":9107:9140   */\n      swap2\n      pop\n        /* \"#utility.yul\":9162:9228   */\n      0xffffffffffffffffffffffffffffffffffffffffffffffffffffffffffffffff\n        /* \"#utility.yul\":9155:9160   */\n      dup3\n        /* \"#utility.yul\":9152:9229   */\n      sub\n        /* \"#utility.yul\":9149:9252   */\n      tag_247\n      jumpi\n        /* \"#utility.yul\":9232:9250   */\n      tag_248\n      tag_126\n      jump\t// in\n    tag_248:\n        /* \"#utility.yul\":9149:9252   */\n    tag_247:\n        /* \"#utility.yul\":9279:9280   */\n      0x01\n        /* \"#utility.yul\":9272:9277   */\n      dup3\n        /* \"#utility.yul\":9268:9281   */\n      add\n        /* \"#utility.yul\":9261:9281   */\n      swap1\n      pop\n        /* \"#utility.yul\":9054:9287   */\n      swap2\n      swap1\n      pop\n      jump\t// out\n        /* \"#utility.yul\":9293:9434   */\n    tag_127:\n        /* \"#utility.yul\":9342:9346   */\n      0x00\n        /* \"#utility.yul\":9365:9368   */\n      dup2\n        /* \"#utility.yul\":9357:9368   */\n      swap1\n      pop\n        /* \"#utility.yul\":9388:9391   */\n      dup2\n        /* \"#utility.yul\":9385:9386   */\n      0x00\n        /* \"#utility.yul\":9378:9392   */\n      mstore\n        /* \"#utility.yul\":9422:9426   */\n      0x20\n        /* \"#utility.yul\":9419:9420   */\n      0x00\n        /* \"#utility.yul\":9409:9427   */\n      keccak256\n        /* \"#utility.yul\":9401:9427   */\n      swap1\n      pop\n        /* \"#utility.yul\":9293:9434   */\n      swap2\n      swap1\n      pop\n      jump\t// out\n        /* \"#utility.yul\":9440:9533   */\n    tag_128:\n        /* \"#utility.yul\":9477:9483   */\n      0x00\n        /* \"#utility.yul\":9524:9526   */\n      0x20\n        /* \"#utility.yul\":9519:9521   */\n      0x1f\n        /* \"#utility.yul\":9512:9517   */\n      dup4\n        /* \"#utility.yul\":9508:9522   */\n      add\n        /* \"#utility.yul\":9504:9527   */\n      div\n        /* \"#utility.yul\":9494:9527   */\n      swap1\n      pop\n        /* \"#utility.yul\":9440:9533   */\n      swap2\n      swap1\n      pop\n      jump\t// out\n        /* \"#utility.yul\":9539:9646   */\n    tag_129:\n        /* \"#utility.yul\":9583:9591   */\n      0x00\n        /* \"#utility.yul\":9633:9638   */\n      dup3\n        /* \"#utility.yul\":9627:9631   */\n      dup3\n        /* \"#utility.yul\":9623:9639   */\n      shl\n        /* \"#utility.yul\":9602:9639   */\n      swap1\n      pop\n        /* \"#utility.yul\":9539:9646   */\n      swap3\n      swap2\n      pop\n      pop\n      jump\t// out\n        /* \"#utility.yul\":9652:10045   */\n    tag_130:\n        /* \"#utility.yul\":9721:9727   */\n      0x00\n        /* \"#utility.yul\":9771:9772   */\n      0x08\n        /* \"#utility.yul\":9759:9769   */\n      dup4\n        /* \"#utility.yul\":9755:9773   */\n      mul\n        /* \"#utility.yul\":9794:9891   */\n      tag_253\n        /* \"#utility.yul\":9824:9890   */\n      0xffffffffffffffffffffffffffffffffffffffffffffffffffffffffffffffff\n        /* \"#utility.yul\":9813:9822   */\n      dup3\n        /* \"#utility.yul\":9794:9891   */\n      tag_129\n      jump\t// in\n    tag_253:\n        /* \"#utility.yul\":9912:9951   */\n      tag_254\n        /* \"#utility.yul\":9942:9950   */\n      dup7\n        /* \"#utility.yul\":9931:9940   */\n      dup4\n        /* \"#utility.yul\":9912:9951   */\n      tag_129\n      jump\t// in\n    tag_254:\n        /* \"#utility.yul\":9900:9951   */\n      swap6\n      pop\n        /* \"#utility.yul\":9984:9988   */\n      dup1\n        /* \"#utility.yul\":9980:9989   */\n      not\n        /* \"#utility.yul\":9973:9978   */\n      dup5\n        /* \"#utility.yul\":9969:9990   */\n      and\n        /* \"#utility.yul\":9960:9990   */\n      swap4\n      pop\n        /* \"#utility.yul\":10033:10037   */\n      dup1\n        /* \"#utility.yul\":10023:10031   */\n      dup7\n        /* \"#utility.yul\":10019:10038   */\n      and\n        /* \"#utility.yul\":10012:10017   */\n      dup5\n        /* \"#utility.yul\":10009:10039   */\n      or\n        /* \"#utility.yul\":9999:10039   */\n      swap3\n      pop\n        /* \"#utility.yul\":9728:10045   */\n      pop\n      pop\n        /* \"#utility.yul\":9652:10045   */\n      swap4\n      swap3\n      pop\n      pop\n      pop\n      jump\t// out\n        /* \"#utility.yul\":10051:10111   */\n    tag_131:\n        /* \"#utility.yul\":10079:10082   */\n      0x00\n        /* \"#utility.yul\":10100:10105   */\n      dup2\n        /* \"#utility.yul\":10093:10105   */\n      swap1\n      pop\n        /* \"#utility.yul\":10051:10111   */\n      swap2\n      swap1\n      pop\n      jump\t// out\n        /* \"#utility.yul\":10117:10259   */\n    tag_132:\n        /* \"#utility.yul\":10167:10176   */\n      0x00\n        /* \"#utility.yul\":10200:10253   */\n      tag_257\n        /* \"#utility.yul\":10218:10252   */\n      tag_258\n        /* \"#utility.yul\":10227:10251   */\n      tag_259\n        /* \"#utility.yul\":10245:10250   */\n      dup5\n        /* \"#utility.yul\":10227:10251   */\n      tag_106\n      jump\t// in\n    tag_259:\n        /* \"#utility.yul\":10218:10252   */\n      tag_131\n      jump\t// in\n    tag_258:\n        /* \"#utility.yul\":10200:10253   */\n      tag_106\n      jump\t// in\n    tag_257:\n        /* \"#utility.yul\":10187:10253   */\n      swap1\n      pop\n        /* \"#utility.yul\":10117:10259   */\n      swap2\n      swap1\n      pop\n      jump\t// out\n        /* \"#utility.yul\":10265:10340   */\n    tag_133:\n        /* \"#utility.yul\":10308:10311   */\n      0x00\n        /* \"#utility.yul\":10329:10334   */\n      dup2\n        /* \"#utility.yul\":10322:10334   */\n      swap1\n      pop\n        /* \"#utility.yul\":10265:10340   */\n      swap2\n      swap1\n      pop\n      jump\t// out\n        /* \"#utility.yul\":10346:10615   */\n    tag_134:\n        /* \"#utility.yul\":10456:10495   */\n      tag_262\n        /* \"#utility.yul\":10487:10494   */\n      dup4\n        /* \"#utility.yul\":10456:10495   */\n      tag_132\n      jump\t// in\n    tag_262:\n        /* \"#utility.yul\":10517:10608   */\n      tag_263\n        /* \"#utility.yul\":10566:10607   */\n      tag_264\n        /* \"#utility.yul\":10590:10606   */\n      dup3\n        /* \"#utility.yul\":10566:10607   */\n      tag_133\n      jump\t// in\n    tag_264:\n        /* \"#utility.yul\":10558:10564   */\n      dup5\n        /* \"#utility.yul\":10551:10555   */\n      dup5\n        /* \"#utility.yul\":10545:10556   */\n      sload\n        /* \"#utility.yul\":10517:10608   */\n      tag_130\n      jump\t// in\n    tag_263:\n        /* \"#utility.yul\":10511:10515   */\n      dup3\n        /* \"#utility.yul\":10504:10609   */\n      sstore\n        /* \"#utility.yul\":10422:10615   */\n      pop\n        /* \"#utility.yul\":10346:10615   */\n      pop\n      pop\n      pop\n      jump\t// out\n        /* \"#utility.yul\":10621:10694   */\n    tag_135:\n        /* \"#utility.yul\":10666:10669   */\n      0x00\n        /* \"#utility.yul\":10621:10694   */\n      swap1\n      jump\t// out\n        /* \"#utility.yul\":10700:10889   */\n    tag_136:\n        /* \"#utility.yul\":10777:10809   */\n      tag_267\n      tag_135\n      jump\t// in\n    tag_267:\n        /* \"#utility.yul\":10818:10883   */\n      tag_268\n        /* \"#utility.yul\":10876:10882   */\n      dup2\n        /* \"#utility.yul\":10868:10874   */\n      dup5\n        /* \"#utility.yul\":10862:10866   */\n      dup5\n        /* \"#utility.yul\":10818:10883   */\n      tag_134\n      jump\t// in\n    tag_268:\n        /* \"#utility.yul\":10753:10889   */\n      pop\n        /* \"#utility.yul\":10700:10889   */\n      pop\n      pop\n      jump\t// out\n        /* \"#utility.yul\":10895:11081   */\n    tag_137:\n        /* \"#utility.yul\":10955:11075   */\n    tag_270:\n        /* \"#utility.yul\":10972:10975   */\n      dup2\n        /* \"#utility.yul\":10965:10970   */\n      dup2\n        /* \"#utility.yul\":10962:10976   */\n      lt\n        /* \"#utility.yul\":10955:11075   */\n      iszero\n      tag_272\n      jumpi\n        /* \"#utility.yul\":11026:11065   */\n      tag_273\n        /* \"#utility.yul\":11063:11064   */\n      0x00\n        /* \"#utility.yul\":11056:11061   */\n      dup3\n        /* \"#utility.yul\":11026:11065   */\n      tag_136\n      jump\t// in\n    tag_273:\n        /* \"#utility.yul\":10999:11000   */\n      0x01\n        /* \"#utility.yul\":10992:10997   */\n      dup2\n        /* \"#utility.yul\":10988:11001   */\n      add\n        /* \"#utility.yul\":10979:11001   */\n      swap1\n      pop\n        /* \"#utility.yul\":10955:11075   */\n      jump(tag_270)\n    tag_272:\n        /* \"#utility.yul\":10895:11081   */\n      pop\n      pop\n      jump\t// out\n        /* \"#utility.yul\":11087:11630   */\n    tag_138:\n        /* \"#utility.yul\":11188:11190   */\n      0x1f\n        /* \"#utility.yul\":11183:11186   */\n      dup3\n        /* \"#utility.yul\":11180:11191   */\n      gt\n        /* \"#utility.yul\":11177:11623   */\n      iszero\n      tag_275\n      jumpi\n        /* \"#utility.yul\":11222:11260   */\n      tag_276\n        /* \"#utility.yul\":11254:11259   */\n      dup2\n        /* \"#utility.yul\":11222:11260   */\n      tag_127\n      jump\t// in\n    tag_276:\n        /* \"#utility.yul\":11306:11335   */\n      tag_277\n        /* \"#utility.yul\":11324:11334   */\n      dup5\n        /* \"#utility.yul\":11306:11335   */\n      tag_128\n      jump\t// in\n    tag_277:\n        /* \"#utility.yul\":11296:11304   */\n      dup2\n        /* \"#utility.yul\":11292:11336   */\n      add\n        /* \"#utility.yul\":11489:11491   */\n      0x20\n        /* \"#utility.yul\":11477:11487   */\n      dup6\n        /* \"#utility.yul\":11474:11492   */\n      lt\n        /* \"#utility.yul\":11471:11520   */\n      iszero\n      tag_278\n      jumpi\n        /* \"#utility.yul\":11510:11518   */\n      dup2\n        /* \"#utility.yul\":11495:11518   */\n      swap1\n      pop\n        /* \"#utility.yul\":11471:11520   */\n    tag_278:\n        /* \"#utility.yul\":11533:11613   */\n      tag_279\n        /* \"#utility.yul\":11589:11611   */\n      tag_280\n        /* \"#utility.yul\":11607:11610   */\n      dup6\n        /* \"#utility.yul\":11589:11611   */\n      tag_128\n      jump\t// in\n    tag_280:\n        /* \"#utility.yul\":11579:11587   */\n      dup4\n        /* \"#utility.yul\":11575:11612   */\n      add\n        /* \"#utility.yul\":11562:11573   */\n      dup3\n        /* \"#utility.yul\":11533:11613   */\n      tag_137\n      jump\t// in\n    tag_279:\n        /* \"#utility.yul\":11192:11623   */\n      pop\n      pop\n        /* \"#utility.yul\":11177:11623   */\n    tag_275:\n        /* \"#utility.yul\":11087:11630   */\n      pop\n      pop\n      pop\n      jump\t// out\n        /* \"#utility.yul\":11636:11753   */\n    tag_139:\n        /* \"#utility.yul\":11690:11698   */\n      0x00\n        /* \"#utility.yul\":11740:11745   */\n      dup3\n        /* \"#utility.yul\":11734:11738   */\n      dup3\n        /* \"#utility.yul\":11730:11746   */\n      shr\n        /* \"#utility.yul\":11709:11746   */\n      swap1\n      pop\n        /* \"#utility.yul\":11636:11753   */\n      swap3\n      swap2\n      pop\n      pop\n      jump\t// out\n        /* \"#utility.yul\":11759:11928   */\n    tag_140:\n        /* \"#utility.yul\":11803:11809   */\n      0x00\n        /* \"#utility.yul\":11836:11887   */\n      tag_283\n        /* \"#utility.yul\":11884:11885   */\n      0x00\n        /* \"#utility.yul\":11880:11886   */\n      not\n        /* \"#utility.yul\":11872:11877   */\n      dup5\n        /* \"#utility.yul\":11869:11870   */\n      0x08\n        /* \"#utility.yul\":11865:11878   */\n      mul\n        /* \"#utility.yul\":11836:11887   */\n      tag_139\n      jump\t// in\n    tag_283:\n        /* \"#utility.yul\":11832:11888   */\n      not\n        /* \"#utility.yul\":11917:11921   */\n      dup1\n        /* \"#utility.yul\":11911:11915   */\n      dup4\n        /* \"#utility.yul\":11907:11922   */\n      and\n        /* \"#utility.yul\":11897:11922   */\n      swap2\n      pop\n        /* \"#utility.yul\":11810:11928   */\n      pop\n        /* \"#utility.yul\":11759:11928   */\n      swap3\n      swap2\n      pop\n      pop\n      jump\t// out\n        /* \"#utility.yul\":11933:12228   */\n    tag_141:\n        /* \"#utility.yul\":12009:12013   */\n      0x00\n        /* \"#utility.yul\":12155:12184   */\n      tag_285\n        /* \"#utility.yul\":12180:12183   */\n      dup4\n        /* \"#utility.yul\":12174:12178   */\n      dup4\n        /* \"#utility.yul\":12155:12184   */\n      tag_140\n      jump\t// in\n    tag_285:\n        /* \"#utility.yul\":12147:12184   */\n      swap2\n      pop\n        /* \"#utility.yul\":12217:12220   */\n      dup3\n        /* \"#utility.yul\":12214:12215   */\n      0x02\n        /* \"#utility.yul\":12210:12221   */\n      mul\n        /* \"#utility.yul\":12204:12208   */\n      dup3\n        /* \"#utility.yul\":12201:12222   */\n      or\n        /* \"#utility.yul\":12193:12222   */\n      swap1\n      pop\n        /* \"#utility.yul\":11933:12228   */\n      swap3\n      swap2\n      pop\n      pop\n      jump\t// out\n        /* \"#utility.yul\":12233:13628   */\n    tag_80:\n        /* \"#utility.yul\":12350:12387   */\n      tag_287\n        /* \"#utility.yul\":12383:12386   */\n      dup3\n        /* \"#utility.yul\":12350:12387   */\n      tag_111\n      jump\t// in\n    tag_287:\n        /* \"#utility.yul\":12452:12470   */\n      0xffffffffffffffff\n        /* \"#utility.yul\":12444:12450   */\n      dup2\n        /* \"#utility.yul\":12441:12471   */\n      gt\n        /* \"#utility.yul\":12438:12494   */\n      iszero\n      tag_288\n      jumpi\n        /* \"#utility.yul\":12474:12492   */\n      tag_289\n      tag_118\n      jump\t// in\n    tag_289:\n        /* \"#utility.yul\":12438:12494   */\n    tag_288:\n        /* \"#utility.yul\":12518:12556   */\n      tag_290\n        /* \"#utility.yul\":12550:12554   */\n      dup3\n        /* \"#utility.yul\":12544:12555   */\n      sload\n        /* \"#utility.yul\":12518:12556   */\n      tag_69\n      jump\t// in\n    tag_290:\n        /* \"#utility.yul\":12603:12670   */\n      tag_291\n        /* \"#utility.yul\":12663:12669   */\n      dup3\n        /* \"#utility.yul\":12655:12661   */\n      dup3\n        /* \"#utility.yul\":12649:12653   */\n      dup6\n        /* \"#utility.yul\":12603:12670   */\n      tag_138\n      jump\t// in\n    tag_291:\n        /* \"#utility.yul\":12697:12698   */\n      0x00\n        /* \"#utility.yul\":12721:12725   */\n      0x20\n        /* \"#utility.yul\":12708:12725   */\n      swap1\n      pop\n        /* \"#utility.yul\":12753:12755   */\n      0x1f\n        /* \"#utility.yul\":12745:12751   */\n      dup4\n        /* \"#utility.yul\":12742:12756   */\n      gt\n        /* \"#utility.yul\":12770:12771   */\n      0x01\n        /* \"#utility.yul\":12765:13383   */\n      dup2\n      eq\n      tag_293\n      jumpi\n        /* \"#utility.yul\":13427:13428   */\n      0x00\n        /* \"#utility.yul\":13444:13450   */\n      dup5\n        /* \"#utility.yul\":13441:13518   */\n      iszero\n      tag_294\n      jumpi\n        /* \"#utility.yul\":13493:13502   */\n      dup3\n        /* \"#utility.yul\":13488:13491   */\n      dup8\n        /* \"#utility.yul\":13484:13503   */\n      add\n        /* \"#utility.yul\":13478:13504   */\n      mload\n        /* \"#utility.yul\":13469:13504   */\n      swap1\n      pop\n        /* \"#utility.yul\":13441:13518   */\n    tag_294:\n        /* \"#utility.yul\":13544:13611   */\n      tag_295\n        /* \"#utility.yul\":13604:13610   */\n      dup6\n        /* \"#utility.yul\":13597:13602   */\n      dup3\n        /* \"#utility.yul\":13544:13611   */\n      tag_141\n      jump\t// in\n    tag_295:\n        /* \"#utility.yul\":13538:13542   */\n      dup7\n        /* \"#utility.yul\":13531:13612   */\n      sstore\n        /* \"#utility.yul\":13400:13622   */\n      pop\n        /* \"#utility.yul\":12735:13622   */\n      jump(tag_292)\n        /* \"#utility.yul\":12765:13383   */\n    tag_293:\n        /* \"#utility.yul\":12817:12821   */\n      0x1f\n        /* \"#utility.yul\":12813:12822   */\n      not\n        /* \"#utility.yul\":12805:12811   */\n      dup5\n        /* \"#utility.yul\":12801:12823   */\n      and\n        /* \"#utility.yul\":12851:12888   */\n      tag_296\n        /* \"#utility.yul\":12883:12887   */\n      dup7\n        /* \"#utility.yul\":12851:12888   */\n      tag_127\n      jump\t// in\n    tag_296:\n        /* \"#utility.yul\":12910:12911   */\n      0x00\n        /* \"#utility.yul\":12924:13132   */\n    tag_297:\n        /* \"#utility.yul\":12938:12945   */\n      dup3\n        /* \"#utility.yul\":12935:12936   */\n      dup2\n        /* \"#utility.yul\":12932:12946   */\n      lt\n        /* \"#utility.yul\":12924:13132   */\n      iszero\n      tag_299\n      jumpi\n        /* \"#utility.yul\":13017:13026   */\n      dup5\n        /* \"#utility.yul\":13012:13015   */\n      dup10\n        /* \"#utility.yul\":13008:13027   */\n      add\n        /* \"#utility.yul\":13002:13028   */\n      mload\n        /* \"#utility.yul\":12994:13000   */\n      dup3\n        /* \"#utility.yul\":12987:13029   */\n      sstore\n        /* \"#utility.yul\":13068:13069   */\n      0x01\n        /* \"#utility.yul\":13060:13066   */\n      dup3\n        /* \"#utility.yul\":13056:13070   */\n      add\n        /* \"#utility.yul\":13046:13070   */\n      swap2\n      pop\n        /* \"#utility.yul\":13115:13117   */\n      0x20\n        /* \"#utility.yul\":13104:13113   */\n      dup6\n        /* \"#utility.yul\":13100:13118   */\n      add\n        /* \"#utility.yul\":13087:13118   */\n      swap5\n      pop\n        /* \"#utility.yul\":12961:12965   */\n      0x20\n        /* \"#utility.yul\":12958:12959   */\n      dup2\n        /* \"#utility.yul\":12954:12966   */\n      add\n        /* \"#utility.yul\":12949:12966   */\n      swap1\n      pop\n        /* \"#utility.yul\":12924:13132   */\n      jump(tag_297)\n    tag_299:\n        /* \"#utility.yul\":13160:13166   */\n      dup7\n        /* \"#utility.yul\":13151:13158   */\n      dup4\n        /* \"#utility.yul\":13148:13167   */\n      lt\n        /* \"#utility.yul\":13145:13324   */\n      iszero\n      tag_300\n      jumpi\n        /* \"#utility.yul\":13218:13227   */\n      dup5\n        /* \"#utility.yul\":13213:13216   */\n      dup10\n        /* \"#utility.yul\":13209:13228   */\n      add\n        /* \"#utility.yul\":13203:13229   */\n      mload\n        /* \"#utility.yul\":13261:13309   */\n      tag_301\n        /* \"#utility.yul\":13303:13307   */\n      0x1f\n        /* \"#utility.yul\":13295:13301   */\n      dup10\n        /* \"#utility.yul\":13291:13308   */\n      and\n        /* \"#utility.yul\":13280:13289   */\n      dup3\n        /* \"#utility.yul\":13261:13309   */\n      tag_140\n      jump\t// in\n    tag_301:\n        /* \"#utility.yul\":13253:13259   */\n      dup4\n        /* \"#utility.yul\":13246:13310   */\n      sstore\n        /* \"#utility.yul\":13168:13324   */\n      pop\n        /* \"#utility.yul\":13145:13324   */\n    tag_300:\n        /* \"#utility.yul\":13370:13371   */\n      0x01\n        /* \"#utility.yul\":13366:13367   */\n      0x02\n        /* \"#utility.yul\":13358:13364   */\n      dup9\n        /* \"#utility.yul\":13354:13368   */\n      mul\n        /* \"#utility.yul\":13350:13372   */\n      add\n        /* \"#utility.yul\":13344:13348   */\n      dup9\n        /* \"#utility.yul\":13337:13373   */\n      sstore\n        /* \"#utility.yul\":12772:13383   */\n      pop\n      pop\n      pop\n        /* \"#utility.yul\":12735:13622   */\n    tag_292:\n      pop\n        /* \"#utility.yul\":12325:13628   */\n      pop\n      pop\n      pop\n        /* \"#utility.yul\":12233:13628   */\n      pop\n      pop\n      jump\t// out\n        /* \"#utility.yul\":13634:13814   */\n    tag_142:\n        /* \"#utility.yul\":13682:13759   */\n      0x4e487b7100000000000000000000000000000000000000000000000000000000\n        /* \"#utility.yul\":13679:13680   */\n      0x00\n        /* \"#utility.yul\":13672:13760   */\n      mstore\n        /* \"#utility.yul\":13779:13783   */\n      0x12\n        /* \"#utility.yul\":13776:13777   */\n      0x04\n        /* \"#utility.yul\":13769:13784   */\n      mstore\n        /* \"#utility.yul\":13803:13807   */\n      0x24\n        /* \"#utility.yul\":13800:13801   */\n      0x00\n        /* \"#utility.yul\":13793:13808   */\n      revert\n        /* \"#utility.yul\":13820:14005   */\n    tag_93:\n        /* \"#utility.yul\":13860:13861   */\n      0x00\n        /* \"#utility.yul\":13877:13897   */\n      tag_304\n        /* \"#utility.yul\":13895:13896   */\n      dup3\n        /* \"#utility.yul\":13877:13897   */\n      tag_106\n      jump\t// in\n    tag_304:\n        /* \"#utility.yul\":13872:13897   */\n      swap2\n      pop\n        /* \"#utility.yul\":13911:13931   */\n      tag_305\n        /* \"#utility.yul\":13929:13930   */\n      dup4\n        /* \"#utility.yul\":13911:13931   */\n      tag_106\n      jump\t// in\n    tag_305:\n        /* \"#utility.yul\":13906:13931   */\n      swap3\n      pop\n        /* \"#utility.yul\":13950:13951   */\n      dup3\n        /* \"#utility.yul\":13940:13975   */\n      tag_306\n      jumpi\n        /* \"#utility.yul\":13955:13973   */\n      tag_307\n      tag_142\n      jump\t// in\n    tag_307:\n        /* \"#utility.yul\":13940:13975   */\n    tag_306:\n        /* \"#utility.yul\":13997:13998   */\n      dup3\n        /* \"#utility.yul\":13994:13995   */\n      dup3\n        /* \"#utility.yul\":13990:13999   */\n      div\n        /* \"#utility.yul\":13985:13999   */\n      swap1\n      pop\n        /* \"#utility.yul\":13820:14005   */\n      swap3\n      swap2\n      pop\n      pop\n      jump\t// out\n\n    auxdata: 0xa2646970667358221220ecc8c85f7d292f77761bbe0be05b5face1d784dce56e2b35e65b02fd3f7b8d0d64736f6c63430008130033\n}\n","bytecode":{"linkReferences":{},"object":"60806040523480156200001157600080fd5b50604051620011f1380380620011f183398181016040528101906200003791906200012c565b8160008190555080600260006101000a81548173ffffffffffffffffffffffffffffffffffffffff021916908373ffffffffffffffffffffffffffffffffffffffff160217905550505062000173565b600080fd5b6000819050919050565b620000a1816200008c565b8114620000ad57600080fd5b50565b600081519050620000c18162000096565b92915050565b600073ffffffffffffffffffffffffffffffffffffffff82169050919050565b6000620000f482620000c7565b9050919050565b6200010681620000e7565b81146200011257600080fd5b50565b6000815190506200012681620000fb565b92915050565b6000806040838503121562000146576200014562000087565b5b60006200015685828601620000b0565b9250506020620001698582860162000115565b9150509250929050565b61106e80620001836000396000f3fe60806040526004361061009c5760003560e01c806382fde0931161006457806382fde093146101a45780638a9cfd55146101cf578063937e09b1146101f8578063d7bb99ba14610223578063d7d1bbdb1461022d578063e7b668b4146102565761009c565b80630a144391146100a15780633410452a146100de5780634051ddac14610109578063481c6a751461013857806381d12c5814610163575b600080fd5b3480156100ad57600080fd5b506100c860048036038101906100c39190610888565b61027f565b6040516100d591906108d0565b60405180910390f35b3480156100ea57600080fd5b506100f361029f565b6040516101009190610904565b60405180910390f35b34801561011557600080fd5b5061011e6102a9565b60405161012f95949392919061092e565b60405180910390f35b34801561014457600080fd5b5061014d6102ee565b60405161015a9190610981565b60405180910390f35b34801561016f57600080fd5b5061018a600480360381019061018591906109c8565b610314565b60405161019b959493929190610a85565b60405180910390f35b3480156101b057600080fd5b506101b96103ff565b6040516101c69190610904565b60405180910390f35b3480156101db57600080fd5b506101f660048036038101906101f19190610c14565b610405565b005b34801561020457600080fd5b5061020d610517565b60405161021a9190610904565b60405180910390f35b61022b61051d565b005b34801561023957600080fd5b50610254600480360381019061024f91906109c8565b61059d565b005b34801561026257600080fd5b5061027d600480360381019061027891906109c8565b6106db565b005b60036020528060005260406000206000915054906101000a900460ff1681565b6000600154905090565b6000806000806000805447600154600454600260009054906101000a900473ffffffffffffffffffffffffffffffffffffffff16945094509450945094509091929394565b600260009054906101000a900473ffffffffffffffffffffffffffffffffffffffff1681565b600560205280600052604060002060009150905080600001805461033790610cb2565b80601f016020809104026020016040519081016040528092919081815260200182805461036390610cb2565b80156103b05780601f10610385576101008083540402835291602001916103b0565b820191906000526020600020905b81548152906001019060200180831161039357829003601f168201915b5050505050908060010154908060020160009054906101000a900473ffffffffffffffffffffffffffffffffffffffff16908060020160149054906101000a900460ff16908060030154905085565b60045481565b600260009054906101000a900473ffffffffffffffffffffffffffffffffffffffff1673ffffffffffffffffffffffffffffffffffffffff163373ffffffffffffffffffffffffffffffffffffffff161461045f57600080fd5b6000600560006001600081548092919061047890610d12565b91905055815260200190815260200160002090508381600001908161049d9190610f06565b50828160010181905550818160020160006101000a81548173ffffffffffffffffffffffffffffffffffffffff021916908373ffffffffffffffffffffffffffffffffffffffff16021790555060008160020160146101000a81548160ff0219169083151502179055506000816003018190555050505050565b60005481565b600054341161052b57600080fd5b6001600360003373ffffffffffffffffffffffffffffffffffffffff1673ffffffffffffffffffffffffffffffffffffffff16815260200190815260200160002060006101000a81548160ff0219169083151502179055506004600081548092919061059690610d12565b9190505550565b6000600560008381526020019081526020016000209050600360003373ffffffffffffffffffffffffffffffffffffffff1673ffffffffffffffffffffffffffffffffffffffff16815260200190815260200160002060009054906101000a900460ff1661060a57600080fd5b8060040160003373ffffffffffffffffffffffffffffffffffffffff1673ffffffffffffffffffffffffffffffffffffffff16815260200190815260200160002060009054906101000a900460ff161561066357600080fd5b60018160040160003373ffffffffffffffffffffffffffffffffffffffff1673ffffffffffffffffffffffffffffffffffffffff16815260200190815260200160002060006101000a81548160ff0219169083151502179055508060030160008154809291906106d290610d12565b91905055505050565b600260009054906101000a900473ffffffffffffffffffffffffffffffffffffffff1673ffffffffffffffffffffffffffffffffffffffff163373ffffffffffffffffffffffffffffffffffffffff161461073557600080fd5b60006005600083815260200190815260200160002090508060020160149054906101000a900460ff161561076857600080fd5b60026004546107779190611007565b81600301541161078657600080fd5b8060020160009054906101000a900473ffffffffffffffffffffffffffffffffffffffff1673ffffffffffffffffffffffffffffffffffffffff166108fc82600101549081150290604051600060405180830381858888f193505050501580156107f4573d6000803e3d6000fd5b5060018160020160146101000a81548160ff0219169083151502179055505050565b6000604051905090565b600080fd5b600080fd5b600073ffffffffffffffffffffffffffffffffffffffff82169050919050565b60006108558261082a565b9050919050565b6108658161084a565b811461087057600080fd5b50565b6000813590506108828161085c565b92915050565b60006020828403121561089e5761089d610820565b5b60006108ac84828501610873565b91505092915050565b60008115159050919050565b6108ca816108b5565b82525050565b60006020820190506108e560008301846108c1565b92915050565b6000819050919050565b6108fe816108eb565b82525050565b600060208201905061091960008301846108f5565b92915050565b6109288161084a565b82525050565b600060a08201905061094360008301886108f5565b61095060208301876108f5565b61095d60408301866108f5565b61096a60608301856108f5565b610977608083018461091f565b9695505050505050565b6000602082019050610996600083018461091f565b92915050565b6109a5816108eb565b81146109b057600080fd5b50565b6000813590506109c28161099c565b92915050565b6000602082840312156109de576109dd610820565b5b60006109ec848285016109b3565b91505092915050565b600081519050919050565b600082825260208201905092915050565b60005b83811015610a2f578082015181840152602081019050610a14565b60008484015250505050565b6000601f19601f8301169050919050565b6000610a57826109f5565b610a618185610a00565b9350610a71818560208601610a11565b610a7a81610a3b565b840191505092915050565b600060a0820190508181036000830152610a9f8188610a4c565b9050610aae60208301876108f5565b610abb604083018661091f565b610ac860608301856108c1565b610ad560808301846108f5565b9695505050505050565b600080fd5b600080fd5b7f4e487b7100000000000000000000000000000000000000000000000000000000600052604160045260246000fd5b610b2182610a3b565b810181811067ffffffffffffffff82111715610b4057610b3f610ae9565b5b80604052505050565b6000610b53610816565b9050610b5f8282610b18565b919050565b600067ffffffffffffffff821115610b7f57610b7e610ae9565b5b610b8882610a3b565b9050602081019050919050565b82818337600083830152505050565b6000610bb7610bb284610b64565b610b49565b905082815260208101848484011115610bd357610bd2610ae4565b5b610bde848285610b95565b509392505050565b600082601f830112610bfb57610bfa610adf565b5b8135610c0b848260208601610ba4565b91505092915050565b600080600060608486031215610c2d57610c2c610820565b5b600084013567ffffffffffffffff811115610c4b57610c4a610825565b5b610c5786828701610be6565b9350506020610c68868287016109b3565b9250506040610c7986828701610873565b9150509250925092565b7f4e487b7100000000000000000000000000000000000000000000000000000000600052602260045260246000fd5b60006002820490506001821680610cca57607f821691505b602082108103610cdd57610cdc610c83565b5b50919050565b7f4e487b7100000000000000000000000000000000000000000000000000000000600052601160045260246000fd5b6000610d1d826108eb565b91507fffffffffffffffffffffffffffffffffffffffffffffffffffffffffffffffff8203610d4f57610d4e610ce3565b5b600182019050919050565b60008190508160005260206000209050919050565b60006020601f8301049050919050565b600082821b905092915050565b600060088302610dbc7fffffffffffffffffffffffffffffffffffffffffffffffffffffffffffffffff82610d7f565b610dc68683610d7f565b95508019841693508086168417925050509392505050565b6000819050919050565b6000610e03610dfe610df9846108eb565b610dde565b6108eb565b9050919050565b6000819050919050565b610e1d83610de8565b610e31610e2982610e0a565b848454610d8c565b825550505050565b600090565b610e46610e39565b610e51818484610e14565b505050565b5b81811015610e7557610e6a600082610e3e565b600181019050610e57565b5050565b601f821115610eba57610e8b81610d5a565b610e9484610d6f565b81016020851015610ea3578190505b610eb7610eaf85610d6f565b830182610e56565b50505b505050565b600082821c905092915050565b6000610edd60001984600802610ebf565b1980831691505092915050565b6000610ef68383610ecc565b9150826002028217905092915050565b610f0f826109f5565b67ffffffffffffffff811115610f2857610f27610ae9565b5b610f328254610cb2565b610f3d828285610e79565b600060209050601f831160018114610f705760008415610f5e578287015190505b610f688582610eea565b865550610fd0565b601f198416610f7e86610d5a565b60005b82811015610fa657848901518255600182019150602085019450602081019050610f81565b86831015610fc35784890151610fbf601f891682610ecc565b8355505b6001600288020188555050505b505050505050565b7f4e487b7100000000000000000000000000000000000000000000000000000000600052601260045260246000fd5b6000611012826108eb565b915061101d836108eb565b92508261102d5761102c610fd8565b5b82820490509291505056fea2646970667358221220ecc8c85f7d292f77761bbe0be05b5face1d784dce56e2b35e65b02fd3f7b8d0d64736f6c63430008130033","opcodes":"PUSH1 0x80 PUSH1 0x40 MSTORE CALLVALUE DUP1 ISZERO PUSH3 0x11 JUMPI PUSH1 0x0 DUP1 REVERT JUMPDEST POP PUSH1 0x40 MLOAD PUSH3 0x11F1 CODESIZE SUB DUP1 PUSH3 0x11F1 DUP4 CODECOPY DUP2 DUP2 ADD PUSH1 0x40 MSTORE DUP2 ADD SWAP1 PUSH3 0x37 SWAP2 SWAP1 PUSH3 0x12C JUMP JUMPDEST DUP2 PUSH1 0x0 DUP2 SWAP1 SSTORE POP DUP1 PUSH1 0x2 PUSH1 0x0 PUSH2 0x100 EXP DUP2 SLOAD DUP2 PUSH20 0xFFFFFFFFFFFFFFFFFFFFFFFFFFFFFFFFFFFFFFFF MUL NOT AND SWAP1 DUP4 PUSH20 0xFFFFFFFFFFFFFFFFFFFFFFFFFFFFFFFFFFFFFFFF AND MUL OR SWAP1 SSTORE POP POP POP PUSH3 0x173 JUMP JUMPDEST PUSH1 0x0 DUP1 REVERT JUMPDEST PUSH1 0x0 DUP2 SWAP1 POP SWAP2 SWAP1 POP JUMP JUMPDEST PUSH3 0xA1 DUP2 PUSH3 0x8C JUMP JUMPDEST DUP2 EQ PUSH3 0xAD JUMPI PUSH1 0x0 DUP1 REVERT JUMPDEST POP JUMP JUMPDEST PUSH1 0x0 DUP2 MLOAD SWAP1 POP PUSH3 0xC1 DUP2 PUSH3 0x96 JUMP JUMPDEST SWAP3 SWAP2 POP POP JUMP JUMPDEST PUSH1 0x0 PUSH20 0xFFFFFFFFFFFFFFFFFFFFFFFFFFFFFFFFFFFFFFFF DUP3 AND SWAP1 POP SWAP2 SWAP1 POP JUMP JUMPDEST PUSH1 0x0 PUSH3 0xF4 DUP3 PUSH3 0xC7 JUMP JUMPDEST SWAP1 POP SWAP2 SWAP1 POP JUMP JUMPDEST PUSH3 0x106 DUP2 PUSH3 0xE7 JUMP JUMPDEST DUP2 EQ PUSH3 0x112 JUMPI PUSH1 0x0 DUP1 REVERT JUMPDEST POP JUMP JUMPDEST PUSH1 0x0 DUP2 MLOAD SWAP1 POP PUSH3 0x126 DUP2 PUSH3 0xFB JUMP JUMPDEST SWAP3 SWAP2 POP POP JUMP JUMPDEST PUSH1 0x0 DUP1 PUSH1 0x40 DUP4 DUP6 SUB SLT ISZERO PUSH3 0x146 JUMPI PUSH3 0x145 PUSH3 0x87 JUMP JUMPDEST JUMPDEST PUSH1 0x0 PUSH3 0x156 DUP6 DUP3 DUP7 ADD PUSH3 0xB0 JUMP JUMPDEST SWAP3 POP POP PUSH1 0x20 PUSH3 0x169 DUP6 DUP3 DUP7 ADD PUSH3 0x115 JUMP JUMPDEST SWAP2 POP POP SWAP3 POP SWAP3 SWAP1 POP JUMP JUMPDEST PUSH2 0x106E DUP1 PUSH3 0x183 PUSH1 0x0 CODECOPY PUSH1 0x0 RETURN INVALID PUSH1 0x80 PUSH1 0x40 MSTORE PUSH1 0x4 CALLDATASIZE LT PUSH2 0x9C JUMPI PUSH1 0x0 CALLDATALOAD PUSH1 0xE0 SHR DUP1 PUSH4 0x82FDE093 GT PUSH2 0x64 JUMPI DUP1 PUSH4 0x82FDE093 EQ PUSH2 0x1A4 JUMPI DUP1 PUSH4 0x8A9CFD55 EQ PUSH2 0x1CF JUMPI DUP1 PUSH4 0x937E09B1 EQ PUSH2 0x1F8 JUMPI DUP1 PUSH4 0xD7BB99BA EQ PUSH2 0x223 JUMPI DUP1 PUSH4 0xD7D1BBDB EQ PUSH2 0x22D JUMPI DUP1 PUSH4 0xE7B668B4 EQ PUSH2 0x256 JUMPI PUSH2 0x9C JUMP JUMPDEST DUP1 PUSH4 0xA144391 EQ PUSH2 0xA1 JUMPI DUP1 PUSH4 0x3410452A EQ PUSH2 0xDE JUMPI DUP1 PUSH4 0x4051DDAC EQ PUSH2 0x109 JUMPI DUP1 PUSH4 0x481C6A75 EQ PUSH2 0x138 JUMPI DUP1 PUSH4 0x81D12C58 EQ PUSH2 0x163 JUMPI JUMPDEST PUSH1 0x0 DUP1 REVERT JUMPDEST CALLVALUE DUP1 ISZERO PUSH2 0xAD JUMPI PUSH1 0x0 DUP1 REVERT JUMPDEST POP PUSH2 0xC8 PUSH1 0x4 DUP1 CALLDATASIZE SUB DUP2 ADD SWAP1 PUSH2 0xC3 SWAP2 SWAP1 PUSH2 0x888 JUMP JUMPDEST PUSH2 0x27F JUMP JUMPDEST PUSH1 0x40 MLOAD PUSH2 0xD5 SWAP2 SWAP1 PUSH2 0x8D0 JUMP JUMPDEST PUSH1 0x40 MLOAD DUP1 SWAP2 SUB SWAP1 RETURN JUMPDEST CALLVALUE DUP1 ISZERO PUSH2 0xEA JUMPI PUSH1 0x0 DUP1 REVERT JUMPDEST POP PUSH2 0xF3 PUSH2 0x29F JUMP JUMPDEST PUSH1 0x40 MLOAD PUSH2 0x100 SWAP2 SWAP1 PUSH2 0x904 JUMP JUMPDEST PUSH1 0x40 MLOAD DUP1 SWAP2 SUB SWAP1 RETURN JUMPDEST CALLVALUE DUP1 ISZERO PUSH2 0x115 JUMPI PUSH1 0x0 DUP1 REVERT JUMPDEST POP PUSH2 0x11E PUSH2 0x2A9 JUMP JUMPDEST PUSH1 0x40 MLOAD PUSH2 0x12F SWAP6 SWAP5 SWAP4 SWAP3 SWAP2 SWAP1 PUSH2 0x92E JUMP JUMPDEST PUSH1 0x40 MLOAD DUP1 SWAP2 SUB SWAP1 RETURN JUMPDEST CALLVALUE DUP1 ISZERO PUSH2 0x144 JUMPI PUSH1 0x0 DUP1 REVERT JUMPDEST POP PUSH2 0x14D PUSH2 0x2EE JUMP JUMPDEST PUSH1 0x40 MLOAD PUSH2 0x15A SWAP2 SWAP1 PUSH2 0x981 JUMP JUMPDEST PUSH1 0x40 MLOAD DUP1 SWAP2 SUB SWAP1 RETURN JUMPDEST CALLVALUE DUP1 ISZERO PUSH2 0x16F JUMPI PUSH1 0x0 DUP1 REVERT JUMPDEST POP PUSH2 0x18A PUSH1 0x4 DUP1 CALLDATASIZE SUB DUP2 ADD SWAP1 PUSH2 0x185 SWAP2 SWAP1 PUSH2 0x9C8 JUMP JUMPDEST PUSH2 0x314 JUMP JUMPDEST PUSH1 0x40 MLOAD PUSH2 0x19B SWAP6 SWAP5 SWAP4 SWAP3 SWAP2 SWAP1 PUSH2 0xA85 JUMP JUMPDEST PUSH1 0x40 MLOAD DUP1 SWAP2 SUB SWAP1 RETURN JUMPDEST CALLVALUE DUP1 ISZERO PUSH2 0x1B0 JUMPI PUSH1 0x0 DUP1 REVERT JUMPDEST POP PUSH2 0x1B9 PUSH2 0x3FF JUMP JUMPDEST PUSH1 0x40 MLOAD PUSH2 0x1C6 SWAP2 SWAP1 PUSH2 0x904 JUMP JUMPDEST PUSH1 0x40 MLOAD DUP1 SWAP2 SUB SWAP1 RETURN JUMPDEST CALLVALUE DUP1 ISZERO PUSH2 0x1DB JUMPI PUSH1 0x0 DUP1 REVERT JUMPDEST POP PUSH2 0x1F6 PUSH1 0x4 DUP1 CALLDATASIZE SUB DUP2 ADD SWAP1 PUSH2 0x1F1 SWAP2 SWAP1 PUSH2 0xC14 JUMP JUMPDEST PUSH2 0x405 JUMP JUMPDEST STOP JUMPDEST CALLVALUE DUP1 ISZERO PUSH2 0x204 JUMPI PUSH1 0x0 DUP1 REVERT JUMPDEST POP PUSH2 0x20D PUSH2 0x517 JUMP JUMPDEST PUSH1 0x40 MLOAD PUSH2 0x21A SWAP2 SWAP1 PUSH2 0x904 JUMP JUMPDEST PUSH1 0x40 MLOAD DUP1 SWAP2 SUB SWAP1 RETURN JUMPDEST PUSH2 0x22B PUSH2 0x51D JUMP JUMPDEST STOP JUMPDEST CALLVALUE DUP1 ISZERO PUSH2 0x239 JUMPI PUSH1 0x0 DUP1 REVERT JUMPDEST POP PUSH2 0x254 PUSH1 0x4 DUP1 CALLDATASIZE SUB DUP2 ADD SWAP1 PUSH2 0x24F SWAP2 SWAP1 PUSH2 0x9C8 JUMP JUMPDEST PUSH2 0x59D JUMP JUMPDEST STOP JUMPDEST CALLVALUE DUP1 ISZERO PUSH2 0x262 JUMPI PUSH1 0x0 DUP1 REVERT JUMPDEST POP PUSH2 0x27D PUSH1 0x4 DUP1 CALLDATASIZE SUB DUP2 ADD SWAP1 PUSH2 0x278 SWAP2 SWAP1 PUSH2 0x9C8 JUMP JUMPDEST PUSH2 0x6DB JUMP JUMPDEST STOP JUMPDEST PUSH1 0x3 PUSH1 0x20 MSTORE DUP1 PUSH1 0x0 MSTORE PUSH1 0x40 PUSH1 0x0 KECCAK256 PUSH1 0x0 SWAP2 POP SLOAD SWAP1 PUSH2 0x100 EXP SWAP1 DIV PUSH1 0xFF AND DUP2 JUMP JUMPDEST PUSH1 0x0 PUSH1 0x1 SLOAD SWAP1 POP SWAP1 JUMP JUMPDEST PUSH1 0x0 DUP1 PUSH1 0x0 DUP1 PUSH1 0x0 DUP1 SLOAD SELFBALANCE PUSH1 0x1 SLOAD PUSH1 0x4 SLOAD PUSH1 0x2 PUSH1 0x0 SWAP1 SLOAD SWAP1 PUSH2 0x100 EXP SWAP1 DIV PUSH20 0xFFFFFFFFFFFFFFFFFFFFFFFFFFFFFFFFFFFFFFFF AND SWAP5 POP SWAP5 POP SWAP5 POP SWAP5 POP SWAP5 POP SWAP1 SWAP2 SWAP3 SWAP4 SWAP5 JUMP JUMPDEST PUSH1 0x2 PUSH1 0x0 SWAP1 SLOAD SWAP1 PUSH2 0x100 EXP SWAP1 DIV PUSH20 0xFFFFFFFFFFFFFFFFFFFFFFFFFFFFFFFFFFFFFFFF AND DUP2 JUMP JUMPDEST PUSH1 0x5 PUSH1 0x20 MSTORE DUP1 PUSH1 0x0 MSTORE PUSH1 0x40 PUSH1 0x0 KECCAK256 PUSH1 0x0 SWAP2 POP SWAP1 POP DUP1 PUSH1 0x0 ADD DUP1 SLOAD PUSH2 0x337 SWAP1 PUSH2 0xCB2 JUMP JUMPDEST DUP1 PUSH1 0x1F ADD PUSH1 0x20 DUP1 SWAP2 DIV MUL PUSH1 0x20 ADD PUSH1 0x40 MLOAD SWAP1 DUP2 ADD PUSH1 0x40 MSTORE DUP1 SWAP3 SWAP2 SWAP1 DUP2 DUP2 MSTORE PUSH1 0x20 ADD DUP3 DUP1 SLOAD PUSH2 0x363 SWAP1 PUSH2 0xCB2 JUMP JUMPDEST DUP1 ISZERO PUSH2 0x3B0 JUMPI DUP1 PUSH1 0x1F LT PUSH2 0x385 JUMPI PUSH2 0x100 DUP1 DUP4 SLOAD DIV MUL DUP4 MSTORE SWAP2 PUSH1 0x20 ADD SWAP2 PUSH2 0x3B0 JUMP JUMPDEST DUP3 ADD SWAP2 SWAP1 PUSH1 0x0 MSTORE PUSH1 0x20 PUSH1 0x0 KECCAK256 SWAP1 JUMPDEST DUP2 SLOAD DUP2 MSTORE SWAP1 PUSH1 0x1 ADD SWAP1 PUSH1 0x20 ADD DUP1 DUP4 GT PUSH2 0x393 JUMPI DUP3 SWAP1 SUB PUSH1 0x1F AND DUP3 ADD SWAP2 JUMPDEST POP POP POP POP POP SWAP1 DUP1 PUSH1 0x1 ADD SLOAD SWAP1 DUP1 PUSH1 0x2 ADD PUSH1 0x0 SWAP1 SLOAD SWAP1 PUSH2 0x100 EXP SWAP1 DIV PUSH20 0xFFFFFFFFFFFFFFFFFFFFFFFFFFFFFFFFFFFFFFFF AND SWAP1 DUP1 PUSH1 0x2 ADD PUSH1 0x14 SWAP1 SLOAD SWAP1 PUSH2 0x100 EXP SWAP1 DIV PUSH1 0xFF AND SWAP1 DUP1 PUSH1 0x3 ADD SLOAD SWAP1 POP DUP6 JUMP JUMPDEST PUSH1 0x4 SLOAD DUP2 JUMP JUMPDEST PUSH1 0x2 PUSH1 0x0 SWAP1 SLOAD SWAP1 PUSH2 0x100 EXP SWAP1 DIV PUSH20 0xFFFFFFFFFFFFFFFFFFFFFFFFFFFFFFFFFFFFFFFF AND PUSH20 0xFFFFFFFFFFFFFFFFFFFFFFFFFFFFFFFFFFFFFFFF AND CALLER PUSH20 0xFFFFFFFFFFFFFFFFFFFFFFFFFFFFFFFFFFFFFFFF AND EQ PUSH2 0x45F JUMPI PUSH1 0x0 DUP1 REVERT JUMPDEST PUSH1 0x0 PUSH1 0x5 PUSH1 0x0 PUSH1 0x1 PUSH1 0x0 DUP2 SLOAD DUP1 SWAP3 SWAP2 SWAP1 PUSH2 0x478 SWAP1 PUSH2 0xD12 JUMP JUMPDEST SWAP2 SWAP1 POP SSTORE DUP2 MSTORE PUSH1 0x20 ADD SWAP1 DUP2 MSTORE PUSH1 0x20 ADD PUSH1 0x0 KECCAK256 SWAP1 POP DUP4 DUP2 PUSH1 0x0 ADD SWAP1 DUP2 PUSH2 0x49D SWAP2 SWAP1 PUSH2 0xF06 JUMP JUMPDEST POP DUP3 DUP2 PUSH1 0x1 ADD DUP2 SWAP1 SSTORE POP DUP2 DUP2 PUSH1 0x2 ADD PUSH1 0x0 PUSH2 0x100 EXP DUP2 SLOAD DUP2 PUSH20 0xFFFFFFFFFFFFFFFFFFFFFFFFFFFFFFFFFFFFFFFF MUL NOT AND SWAP1 DUP4 PUSH20 0xFFFFFFFFFFFFFFFFFFFFFFFFFFFFFFFFFFFFFFFF AND MUL OR SWAP1 SSTORE POP PUSH1 0x0 DUP2 PUSH1 0x2 ADD PUSH1 0x14 PUSH2 0x100 EXP DUP2 SLOAD DUP2 PUSH1 0xFF MUL NOT AND SWAP1 DUP4 ISZERO ISZERO MUL OR SWAP1 SSTORE POP PUSH1 0x0 DUP2 PUSH1 0x3 ADD DUP2 SWAP1 SSTORE POP POP POP POP POP JUMP JUMPDEST PUSH1 0x0 SLOAD DUP2 JUMP JUMPDEST PUSH1 0x0 SLOAD CALLVALUE GT PUSH2 0x52B JUMPI PUSH1 0x0 DUP1 REVERT JUMPDEST PUSH1 0x1 PUSH1 0x3 PUSH1 0x0 CALLER PUSH20 0xFFFFFFFFFFFFFFFFFFFFFFFFFFFFFFFFFFFFFFFF AND PUSH20 0xFFFFFFFFFFFFFFFFFFFFFFFFFFFFFFFFFFFFFFFF AND DUP2 MSTORE PUSH1 0x20 ADD SWAP1 DUP2 MSTORE PUSH1 0x20 ADD PUSH1 0x0 KECCAK256 PUSH1 0x0 PUSH2 0x100 EXP DUP2 SLOAD DUP2 PUSH1 0xFF MUL NOT AND SWAP1 DUP4 ISZERO ISZERO MUL OR SWAP1 SSTORE POP PUSH1 0x4 PUSH1 0x0 DUP2 SLOAD DUP1 SWAP3 SWAP2 SWAP1 PUSH2 0x596 SWAP1 PUSH2 0xD12 JUMP JUMPDEST SWAP2 SWAP1 POP SSTORE POP JUMP JUMPDEST PUSH1 0x0 PUSH1 0x5 PUSH1 0x0 DUP4 DUP2 MSTORE PUSH1 0x20 ADD SWAP1 DUP2 MSTORE PUSH1 0x20 ADD PUSH1 0x0 KECCAK256 SWAP1 POP PUSH1 0x3 PUSH1 0x0 CALLER PUSH20 0xFFFFFFFFFFFFFFFFFFFFFFFFFFFFFFFFFFFFFFFF AND PUSH20 0xFFFFFFFFFFFFFFFFFFFFFFFFFFFFFFFFFFFFFFFF AND DUP2 MSTORE PUSH1 0x20 ADD SWAP1 DUP2 MSTORE PUSH1 0x20 ADD PUSH1 0x0 KECCAK256 PUSH1 0x0 SWAP1 SLOAD SWAP1 PUSH2 0x100 EXP SWAP1 DIV PUSH1 0xFF AND PUSH2 0x60A JUMPI PUSH1 0x0 DUP1 REVERT JUMPDEST DUP1 PUSH1 0x4 ADD PUSH1 0x0 CALLER PUSH20 0xFFFFFFFFFFFFFFFFFFFFFFFFFFFFFFFFFFFFFFFF AND PUSH20 0xFFFFFFFFFFFFFFFFFFFFFFFFFFFFFFFFFFFFFFFF AND DUP2 MSTORE PUSH1 0x20 ADD SWAP1 DUP2 MSTORE PUSH1 0x20 ADD PUSH1 0x0 KECCAK256 PUSH1 0x0 SWAP1 SLOAD SWAP1 PUSH2 0x100 EXP SWAP1 DIV PUSH1 0xFF AND ISZERO PUSH2 0x663 JUMPI PUSH1 0x0 DUP1 REVERT JUMPDEST PUSH1 0x1 DUP2 PUSH1 0x4 ADD PUSH1 0x0 CALLER PUSH20 0xFFFFFFFFFFFFFFFFFFFFFFFFFFFFFFFFFFFFFFFF AND PUSH20 0xFFFFFFFFFFFFFFFFFFFFFFFFFFFFFFFFFFFFFFFF AND DUP2 MSTORE PUSH1 0x20 ADD SWAP1 DUP2 MSTORE PUSH1 0x20 ADD PUSH1 0x0 KECCAK256 PUSH1 0x0 PUSH2 0x100 EXP DUP2 SLOAD DUP2 PUSH1 0xFF MUL NOT AND SWAP1 DUP4 ISZERO ISZERO MUL OR SWAP1 SSTORE POP DUP1 PUSH1 0x3 ADD PUSH1 0x0 DUP2 SLOAD DUP1 SWAP3 SWAP2 SWAP1 PUSH2 0x6D2 SWAP1 PUSH2 0xD12 JUMP JUMPDEST SWAP2 SWAP1 POP SSTORE POP POP POP JUMP JUMPDEST PUSH1 0x2 PUSH1 0x0 SWAP1 SLOAD SWAP1 PUSH2 0x100 EXP SWAP1 DIV PUSH20 0xFFFFFFFFFFFFFFFFFFFFFFFFFFFFFFFFFFFFFFFF AND PUSH20 0xFFFFFFFFFFFFFFFFFFFFFFFFFFFFFFFFFFFFFFFF AND CALLER PUSH20 0xFFFFFFFFFFFFFFFFFFFFFFFFFFFFFFFFFFFFFFFF AND EQ PUSH2 0x735 JUMPI PUSH1 0x0 DUP1 REVERT JUMPDEST PUSH1 0x0 PUSH1 0x5 PUSH1 0x0 DUP4 DUP2 MSTORE PUSH1 0x20 ADD SWAP1 DUP2 MSTORE PUSH1 0x20 ADD PUSH1 0x0 KECCAK256 SWAP1 POP DUP1 PUSH1 0x2 ADD PUSH1 0x14 SWAP1 SLOAD SWAP1 PUSH2 0x100 EXP SWAP1 DIV PUSH1 0xFF AND ISZERO PUSH2 0x768 JUMPI PUSH1 0x0 DUP1 REVERT JUMPDEST PUSH1 0x2 PUSH1 0x4 SLOAD PUSH2 0x777 SWAP2 SWAP1 PUSH2 0x1007 JUMP JUMPDEST DUP2 PUSH1 0x3 ADD SLOAD GT PUSH2 0x786 JUMPI PUSH1 0x0 DUP1 REVERT JUMPDEST DUP1 PUSH1 0x2 ADD PUSH1 0x0 SWAP1 SLOAD SWAP1 PUSH2 0x100 EXP SWAP1 DIV PUSH20 0xFFFFFFFFFFFFFFFFFFFFFFFFFFFFFFFFFFFFFFFF AND PUSH20 0xFFFFFFFFFFFFFFFFFFFFFFFFFFFFFFFFFFFFFFFF AND PUSH2 0x8FC DUP3 PUSH1 0x1 ADD SLOAD SWAP1 DUP2 ISZERO MUL SWAP1 PUSH1 0x40 MLOAD PUSH1 0x0 PUSH1 0x40 MLOAD DUP1 DUP4 SUB DUP2 DUP6 DUP9 DUP9 CALL SWAP4 POP POP POP POP ISZERO DUP1 ISZERO PUSH2 0x7F4 JUMPI RETURNDATASIZE PUSH1 0x0 DUP1 RETURNDATACOPY RETURNDATASIZE PUSH1 0x0 REVERT JUMPDEST POP PUSH1 0x1 DUP2 PUSH1 0x2 ADD PUSH1 0x14 PUSH2 0x100 EXP DUP2 SLOAD DUP2 PUSH1 0xFF MUL NOT AND SWAP1 DUP4 ISZERO ISZERO MUL OR SWAP1 SSTORE POP POP POP JUMP JUMPDEST PUSH1 0x0 PUSH1 0x40 MLOAD SWAP1 POP SWAP1 JUMP JUMPDEST PUSH1 0x0 DUP1 REVERT JUMPDEST PUSH1 0x0 DUP1 REVERT JUMPDEST PUSH1 0x0 PUSH20 0xFFFFFFFFFFFFFFFFFFFFFFFFFFFFFFFFFFFFFFFF DUP3 AND SWAP1 POP SWAP2 SWAP1 POP JUMP JUMPDEST PUSH1 0x0 PUSH2 0x855 DUP3 PUSH2 0x82A JUMP JUMPDEST SWAP1 POP SWAP2 SWAP1 POP JUMP JUMPDEST PUSH2 0x865 DUP2 PUSH2 0x84A JUMP JUMPDEST DUP2 EQ PUSH2 0x870 JUMPI PUSH1 0x0 DUP1 REVERT JUMPDEST POP JUMP JUMPDEST PUSH1 0x0 DUP2 CALLDATALOAD SWAP1 POP PUSH2 0x882 DUP2 PUSH2 0x85C JUMP JUMPDEST SWAP3 SWAP2 POP POP JUMP JUMPDEST PUSH1 0x0 PUSH1 0x20 DUP3 DUP5 SUB SLT ISZERO PUSH2 0x89E JUMPI PUSH2 0x89D PUSH2 0x820 JUMP JUMPDEST JUMPDEST PUSH1 0x0 PUSH2 0x8AC DUP5 DUP3 DUP6 ADD PUSH2 0x873 JUMP JUMPDEST SWAP2 POP POP SWAP3 SWAP2 POP POP JUMP JUMPDEST PUSH1 0x0 DUP2 ISZERO ISZERO SWAP1 POP SWAP2 SWAP1 POP JUMP JUMPDEST PUSH2 0x8CA DUP2 PUSH2 0x8B5 JUMP JUMPDEST DUP3 MSTORE POP POP JUMP JUMPDEST PUSH1 0x0 PUSH1 0x20 DUP3 ADD SWAP1 POP PUSH2 0x8E5 PUSH1 0x0 DUP4 ADD DUP5 PUSH2 0x8C1 JUMP JUMPDEST SWAP3 SWAP2 POP POP JUMP JUMPDEST PUSH1 0x0 DUP2 SWAP1 POP SWAP2 SWAP1 POP JUMP JUMPDEST PUSH2 0x8FE DUP2 PUSH2 0x8EB JUMP JUMPDEST DUP3 MSTORE POP POP JUMP JUMPDEST PUSH1 0x0 PUSH1 0x20 DUP3 ADD SWAP1 POP PUSH2 0x919 PUSH1 0x0 DUP4 ADD DUP5 PUSH2 0x8F5 JUMP JUMPDEST SWAP3 SWAP2 POP POP JUMP JUMPDEST PUSH2 0x928 DUP2 PUSH2 0x84A JUMP JUMPDEST DUP3 MSTORE POP POP JUMP JUMPDEST PUSH1 0x0 PUSH1 0xA0 DUP3 ADD SWAP1 POP PUSH2 0x943 PUSH1 0x0 DUP4 ADD DUP9 PUSH2 0x8F5 JUMP JUMPDEST PUSH2 0x950 PUSH1 0x20 DUP4 ADD DUP8 PUSH2 0x8F5 JUMP JUMPDEST PUSH2 0x95D PUSH1 0x40 DUP4 ADD DUP7 PUSH2 0x8F5 JUMP JUMPDEST PUSH2 0x96A PUSH1 0x60 DUP4 ADD DUP6 PUSH2 0x8F5 JUMP JUMPDEST PUSH2 0x977 PUSH1 0x80 DUP4 ADD DUP5 PUSH2 0x91F JUMP JUMPDEST SWAP7 SWAP6 POP POP POP POP POP POP JUMP JUMPDEST PUSH1 0x0 PUSH1 0x20 DUP3 ADD SWAP1 POP PUSH2 0x996 PUSH1 0x0 DUP4 ADD DUP5 PUSH2 0x91F JUMP JUMPDEST SWAP3 SWAP2 POP POP JUMP JUMPDEST PUSH2 0x9A5 DUP2 PUSH2 0x8EB JUMP JUMPDEST DUP2 EQ PUSH2 0x9B0 JUMPI PUSH1 0x0 DUP1 REVERT JUMPDEST POP JUMP JUMPDEST PUSH1 0x0 DUP2 CALLDATALOAD SWAP1 POP PUSH2 0x9C2 DUP2 PUSH2 0x99C JUMP JUMPDEST SWAP3 SWAP2 POP POP JUMP JUMPDEST PUSH1 0x0 PUSH1 0x20 DUP3 DUP5 SUB SLT ISZERO PUSH2 0x9DE JUMPI PUSH2 0x9DD PUSH2 0x820 JUMP JUMPDEST JUMPDEST PUSH1 0x0 PUSH2 0x9EC DUP5 DUP3 DUP6 ADD PUSH2 0x9B3 JUMP JUMPDEST SWAP2 POP POP SWAP3 SWAP2 POP POP JUMP JUMPDEST PUSH1 0x0 DUP2 MLOAD SWAP1 POP SWAP2 SWAP1 POP JUMP JUMPDEST PUSH1 0x0 DUP3 DUP3 MSTORE PUSH1 0x20 DUP3 ADD SWAP1 POP SWAP3 SWAP2 POP POP JUMP JUMPDEST PUSH1 0x0 JUMPDEST DUP4 DUP2 LT ISZERO PUSH2 0xA2F JUMPI DUP1 DUP3 ADD MLOAD DUP2 DUP5 ADD MSTORE PUSH1 0x20 DUP2 ADD SWAP1 POP PUSH2 0xA14 JUMP JUMPDEST PUSH1 0x0 DUP5 DUP5 ADD MSTORE POP POP POP POP JUMP JUMPDEST PUSH1 0x0 PUSH1 0x1F NOT PUSH1 0x1F DUP4 ADD AND SWAP1 POP SWAP2 SWAP1 POP JUMP JUMPDEST PUSH1 0x0 PUSH2 0xA57 DUP3 PUSH2 0x9F5 JUMP JUMPDEST PUSH2 0xA61 DUP2 DUP6 PUSH2 0xA00 JUMP JUMPDEST SWAP4 POP PUSH2 0xA71 DUP2 DUP6 PUSH1 0x20 DUP7 ADD PUSH2 0xA11 JUMP JUMPDEST PUSH2 0xA7A DUP2 PUSH2 0xA3B JUMP JUMPDEST DUP5 ADD SWAP2 POP POP SWAP3 SWAP2 POP POP JUMP JUMPDEST PUSH1 0x0 PUSH1 0xA0 DUP3 ADD SWAP1 POP DUP2 DUP2 SUB PUSH1 0x0 DUP4 ADD MSTORE PUSH2 0xA9F DUP2 DUP9 PUSH2 0xA4C JUMP JUMPDEST SWAP1 POP PUSH2 0xAAE PUSH1 0x20 DUP4 ADD DUP8 PUSH2 0x8F5 JUMP JUMPDEST PUSH2 0xABB PUSH1 0x40 DUP4 ADD DUP7 PUSH2 0x91F JUMP JUMPDEST PUSH2 0xAC8 PUSH1 0x60 DUP4 ADD DUP6 PUSH2 0x8C1 JUMP JUMPDEST PUSH2 0xAD5 PUSH1 0x80 DUP4 ADD DUP5 PUSH2 0x8F5 JUMP JUMPDEST SWAP7 SWAP6 POP POP POP POP POP POP JUMP JUMPDEST PUSH1 0x0 DUP1 REVERT JUMPDEST PUSH1 0x0 DUP1 REVERT JUMPDEST PUSH32 0x4E487B7100000000000000000000000000000000000000000000000000000000 PUSH1 0x0 MSTORE PUSH1 0x41 PUSH1 0x4 MSTORE PUSH1 0x24 PUSH1 0x0 REVERT JUMPDEST PUSH2 0xB21 DUP3 PUSH2 0xA3B JUMP JUMPDEST DUP2 ADD DUP2 DUP2 LT PUSH8 0xFFFFFFFFFFFFFFFF DUP3 GT OR ISZERO PUSH2 0xB40 JUMPI PUSH2 0xB3F PUSH2 0xAE9 JUMP JUMPDEST JUMPDEST DUP1 PUSH1 0x40 MSTORE POP POP POP JUMP JUMPDEST PUSH1 0x0 PUSH2 0xB53 PUSH2 0x816 JUMP JUMPDEST SWAP1 POP PUSH2 0xB5F DUP3 DUP3 PUSH2 0xB18 JUMP JUMPDEST SWAP2 SWAP1 POP JUMP JUMPDEST PUSH1 0x0 PUSH8 0xFFFFFFFFFFFFFFFF DUP3 GT ISZERO PUSH2 0xB7F JUMPI PUSH2 0xB7E PUSH2 0xAE9 JUMP JUMPDEST JUMPDEST PUSH2 0xB88 DUP3 PUSH2 0xA3B JUMP JUMPDEST SWAP1 POP PUSH1 0x20 DUP2 ADD SWAP1 POP SWAP2 SWAP1 POP JUMP JUMPDEST DUP3 DUP2 DUP4 CALLDATACOPY PUSH1 0x0 DUP4 DUP4 ADD MSTORE POP POP POP JUMP JUMPDEST PUSH1 0x0 PUSH2 0xBB7 PUSH2 0xBB2 DUP5 PUSH2 0xB64 JUMP JUMPDEST PUSH2 0xB49 JUMP JUMPDEST SWAP1 POP DUP3 DUP2 MSTORE PUSH1 0x20 DUP2 ADD DUP5 DUP5 DUP5 ADD GT ISZERO PUSH2 0xBD3 JUMPI PUSH2 0xBD2 PUSH2 0xAE4 JUMP JUMPDEST JUMPDEST PUSH2 0xBDE DUP5 DUP3 DUP6 PUSH2 0xB95 JUMP JUMPDEST POP SWAP4 SWAP3 POP POP POP JUMP JUMPDEST PUSH1 0x0 DUP3 PUSH1 0x1F DUP4 ADD SLT PUSH2 0xBFB JUMPI PUSH2 0xBFA PUSH2 0xADF JUMP JUMPDEST JUMPDEST DUP2 CALLDATALOAD PUSH2 0xC0B DUP5 DUP3 PUSH1 0x20 DUP7 ADD PUSH2 0xBA4 JUMP JUMPDEST SWAP2 POP POP SWAP3 SWAP2 POP POP JUMP JUMPDEST PUSH1 0x0 DUP1 PUSH1 0x0 PUSH1 0x60 DUP5 DUP7 SUB SLT ISZERO PUSH2 0xC2D JUMPI PUSH2 0xC2C PUSH2 0x820 JUMP JUMPDEST JUMPDEST PUSH1 0x0 DUP5 ADD CALLDATALOAD PUSH8 0xFFFFFFFFFFFFFFFF DUP2 GT ISZERO PUSH2 0xC4B JUMPI PUSH2 0xC4A PUSH2 0x825 JUMP JUMPDEST JUMPDEST PUSH2 0xC57 DUP7 DUP3 DUP8 ADD PUSH2 0xBE6 JUMP JUMPDEST SWAP4 POP POP PUSH1 0x20 PUSH2 0xC68 DUP7 DUP3 DUP8 ADD PUSH2 0x9B3 JUMP JUMPDEST SWAP3 POP POP PUSH1 0x40 PUSH2 0xC79 DUP7 DUP3 DUP8 ADD PUSH2 0x873 JUMP JUMPDEST SWAP2 POP POP SWAP3 POP SWAP3 POP SWAP3 JUMP JUMPDEST PUSH32 0x4E487B7100000000000000000000000000000000000000000000000000000000 PUSH1 0x0 MSTORE PUSH1 0x22 PUSH1 0x4 MSTORE PUSH1 0x24 PUSH1 0x0 REVERT JUMPDEST PUSH1 0x0 PUSH1 0x2 DUP3 DIV SWAP1 POP PUSH1 0x1 DUP3 AND DUP1 PUSH2 0xCCA JUMPI PUSH1 0x7F DUP3 AND SWAP2 POP JUMPDEST PUSH1 0x20 DUP3 LT DUP2 SUB PUSH2 0xCDD JUMPI PUSH2 0xCDC PUSH2 0xC83 JUMP JUMPDEST JUMPDEST POP SWAP2 SWAP1 POP JUMP JUMPDEST PUSH32 0x4E487B7100000000000000000000000000000000000000000000000000000000 PUSH1 0x0 MSTORE PUSH1 0x11 PUSH1 0x4 MSTORE PUSH1 0x24 PUSH1 0x0 REVERT JUMPDEST PUSH1 0x0 PUSH2 0xD1D DUP3 PUSH2 0x8EB JUMP JUMPDEST SWAP2 POP PUSH32 0xFFFFFFFFFFFFFFFFFFFFFFFFFFFFFFFFFFFFFFFFFFFFFFFFFFFFFFFFFFFFFFFF DUP3 SUB PUSH2 0xD4F JUMPI PUSH2 0xD4E PUSH2 0xCE3 JUMP JUMPDEST JUMPDEST PUSH1 0x1 DUP3 ADD SWAP1 POP SWAP2 SWAP1 POP JUMP JUMPDEST PUSH1 0x0 DUP2 SWAP1 POP DUP2 PUSH1 0x0 MSTORE PUSH1 0x20 PUSH1 0x0 KECCAK256 SWAP1 POP SWAP2 SWAP1 POP JUMP JUMPDEST PUSH1 0x0 PUSH1 0x20 PUSH1 0x1F DUP4 ADD DIV SWAP1 POP SWAP2 SWAP1 POP JUMP JUMPDEST PUSH1 0x0 DUP3 DUP3 SHL SWAP1 POP SWAP3 SWAP2 POP POP JUMP JUMPDEST PUSH1 0x0 PUSH1 0x8 DUP4 MUL PUSH2 0xDBC PUSH32 0xFFFFFFFFFFFFFFFFFFFFFFFFFFFFFFFFFFFFFFFFFFFFFFFFFFFFFFFFFFFFFFFF DUP3 PUSH2 0xD7F JUMP JUMPDEST PUSH2 0xDC6 DUP7 DUP4 PUSH2 0xD7F JUMP JUMPDEST SWAP6 POP DUP1 NOT DUP5 AND SWAP4 POP DUP1 DUP7 AND DUP5 OR SWAP3 POP POP POP SWAP4 SWAP3 POP POP POP JUMP JUMPDEST PUSH1 0x0 DUP2 SWAP1 POP SWAP2 SWAP1 POP JUMP JUMPDEST PUSH1 0x0 PUSH2 0xE03 PUSH2 0xDFE PUSH2 0xDF9 DUP5 PUSH2 0x8EB JUMP JUMPDEST PUSH2 0xDDE JUMP JUMPDEST PUSH2 0x8EB JUMP JUMPDEST SWAP1 POP SWAP2 SWAP1 POP JUMP JUMPDEST PUSH1 0x0 DUP2 SWAP1 POP SWAP2 SWAP1 POP JUMP JUMPDEST PUSH2 0xE1D DUP4 PUSH2 0xDE8 JUMP JUMPDEST PUSH2 0xE31 PUSH2 0xE29 DUP3 PUSH2 0xE0A JUMP JUMPDEST DUP5 DUP5 SLOAD PUSH2 0xD8C JUMP JUMPDEST DUP3 SSTORE POP POP POP POP JUMP JUMPDEST PUSH1 0x0 SWAP1 JUMP JUMPDEST PUSH2 0xE46 PUSH2 0xE39 JUMP JUMPDEST PUSH2 0xE51 DUP2 DUP5 DUP5 PUSH2 0xE14 JUMP JUMPDEST POP POP POP JUMP JUMPDEST JUMPDEST DUP2 DUP2 LT ISZERO PUSH2 0xE75 JUMPI PUSH2 0xE6A PUSH1 0x0 DUP3 PUSH2 0xE3E JUMP JUMPDEST PUSH1 0x1 DUP2 ADD SWAP1 POP PUSH2 0xE57 JUMP JUMPDEST POP POP JUMP JUMPDEST PUSH1 0x1F DUP3 GT ISZERO PUSH2 0xEBA JUMPI PUSH2 0xE8B DUP2 PUSH2 0xD5A JUMP JUMPDEST PUSH2 0xE94 DUP5 PUSH2 0xD6F JUMP JUMPDEST DUP2 ADD PUSH1 0x20 DUP6 LT ISZERO PUSH2 0xEA3 JUMPI DUP2 SWAP1 POP JUMPDEST PUSH2 0xEB7 PUSH2 0xEAF DUP6 PUSH2 0xD6F JUMP JUMPDEST DUP4 ADD DUP3 PUSH2 0xE56 JUMP JUMPDEST POP POP JUMPDEST POP POP POP JUMP JUMPDEST PUSH1 0x0 DUP3 DUP3 SHR SWAP1 POP SWAP3 SWAP2 POP POP JUMP JUMPDEST PUSH1 0x0 PUSH2 0xEDD PUSH1 0x0 NOT DUP5 PUSH1 0x8 MUL PUSH2 0xEBF JUMP JUMPDEST NOT DUP1 DUP4 AND SWAP2 POP POP SWAP3 SWAP2 POP POP JUMP JUMPDEST PUSH1 0x0 PUSH2 0xEF6 DUP4 DUP4 PUSH2 0xECC JUMP JUMPDEST SWAP2 POP DUP3 PUSH1 0x2 MUL DUP3 OR SWAP1 POP SWAP3 SWAP2 POP POP JUMP JUMPDEST PUSH2 0xF0F DUP3 PUSH2 0x9F5 JUMP JUMPDEST PUSH8 0xFFFFFFFFFFFFFFFF DUP2 GT ISZERO PUSH2 0xF28 JUMPI PUSH2 0xF27 PUSH2 0xAE9 JUMP JUMPDEST JUMPDEST PUSH2 0xF32 DUP3 SLOAD PUSH2 0xCB2 JUMP JUMPDEST PUSH2 0xF3D DUP3 DUP3 DUP6 PUSH2 0xE79 JUMP JUMPDEST PUSH1 0x0 PUSH1 0x20 SWAP1 POP PUSH1 0x1F DUP4 GT PUSH1 0x1 DUP2 EQ PUSH2 0xF70 JUMPI PUSH1 0x0 DUP5 ISZERO PUSH2 0xF5E JUMPI DUP3 DUP8 ADD MLOAD SWAP1 POP JUMPDEST PUSH2 0xF68 DUP6 DUP3 PUSH2 0xEEA JUMP JUMPDEST DUP7 SSTORE POP PUSH2 0xFD0 JUMP JUMPDEST PUSH1 0x1F NOT DUP5 AND PUSH2 0xF7E DUP7 PUSH2 0xD5A JUMP JUMPDEST PUSH1 0x0 JUMPDEST DUP3 DUP2 LT ISZERO PUSH2 0xFA6 JUMPI DUP5 DUP10 ADD MLOAD DUP3 SSTORE PUSH1 0x1 DUP3 ADD SWAP2 POP PUSH1 0x20 DUP6 ADD SWAP5 POP PUSH1 0x20 DUP2 ADD SWAP1 POP PUSH2 0xF81 JUMP JUMPDEST DUP7 DUP4 LT ISZERO PUSH2 0xFC3 JUMPI DUP5 DUP10 ADD MLOAD PUSH2 0xFBF PUSH1 0x1F DUP10 AND DUP3 PUSH2 0xECC JUMP JUMPDEST DUP4 SSTORE POP JUMPDEST PUSH1 0x1 PUSH1 0x2 DUP9 MUL ADD DUP9 SSTORE POP POP POP JUMPDEST POP POP POP POP POP POP JUMP JUMPDEST PUSH32 0x4E487B7100000000000000000000000000000000000000000000000000000000 PUSH1 0x0 MSTORE PUSH1 0x12 PUSH1 0x4 MSTORE PUSH1 0x24 PUSH1 0x0 REVERT JUMPDEST PUSH1 0x0 PUSH2 0x1012 DUP3 PUSH2 0x8EB JUMP JUMPDEST SWAP2 POP PUSH2 0x101D DUP4 PUSH2 0x8EB JUMP JUMPDEST SWAP3 POP DUP3 PUSH2 0x102D JUMPI PUSH2 0x102C PUSH2 0xFD8 JUMP JUMPDEST JUMPDEST DUP3 DUP3 DIV SWAP1 POP SWAP3 SWAP2 POP POP JUMP INVALID LOG2 PUSH5 0x6970667358 0x22 SLT KECCAK256 0xEC 0xC8 0xC8 0x5F PUSH30 0x292F77761BBE0BE05B5FACE1D784DCE56E2B35E65B02FD3F7B8D0D64736F PUSH13 0x63430008130033000000000000 "},"gasEstimates":{"creation":{"codeDepositCost":"841200","executionCost":"infinite","totalCost":"infinite"},"external":{"approveRequest(uint256)":"infinite","approvers(address)":"2846","approversCount()":"2429","contribute()":"51021","createRequest(string,uint256,address)":"infinite","finaliseRequest(uint256)":"infinite","getRequestsCount()":"2460","getSummary()":"infinite","manager()":"2581","minimumContribution()":"2473","requests(uint256)":"infinite"}},"methodIdentifiers":{"approveRequest(uint256)":"d7d1bbdb","approvers(address)":"0a144391","approversCount()":"82fde093","contribute()":"d7bb99ba","createRequest(string,uint256,address)":"8a9cfd55","finaliseRequest(uint256)":"e7b668b4","getRequestsCount()":"3410452a","getSummary()":"4051ddac","manager()":"481c6a75","minimumContribution()":"937e09b1","requests(uint256)":"81d12c58"}},"storageLayout":{"storage":[{"astId":56,"contract":"Campaign.sol:Campaign","label":"minimumContribution","offset":0,"slot":"0","type":"t_uint256"},{"astId":58,"contract":"Campaign.sol:Campaign","label":"numRequest","offset":0,"slot":"1","type":"t_uint256"},{"astId":60,"contract":"Campaign.sol:Campaign","label":"manager","offset":0,"slot":"2","type":"t_address"},{"astId":64,"contract":"Campaign.sol:Campaign","label":"approvers","offset":0,"slot":"3","type":"t_mapping(t_address,t_bool)"},{"astId":66,"contract":"Campaign.sol:Campaign","label":"approversCount","offset":0,"slot":"4","type":"t_uint256"},{"astId":71,"contract":"Campaign.sol:Campaign","label":"requests","offset":0,"slot":"5","type":"t_mapping(t_uint256,t_struct(Request)54_storage)"}],"types":{"t_address":{"encoding":"inplace","label":"address","numberOfBytes":"20"},"t_bool":{"encoding":"inplace","label":"bool","numberOfBytes":"1"},"t_mapping(t_address,t_bool)":{"encoding":"mapping","key":"t_address","label":"mapping(address => bool)","numberOfBytes":"32","value":"t_bool"},"t_mapping(t_uint256,t_struct(Request)54_storage)":{"encoding":"mapping","key":"t_uint256","label":"mapping(uint256 => struct Campaign.Request)","numberOfBytes":"32","value":"t_struct(Request)54_storage"},"t_string_storage":{"encoding":"bytes","label":"string","numberOfBytes":"32"},"t_struct(Request)54_storage":{"encoding":"inplace","label":"struct Campaign.Request","members":[{"astId":41,"contract":"Campaign.sol:Campaign","label":"description","offset":0,"slot":"0","type":"t_string_storage"},{"astId":43,"contract":"Campaign.sol:Campaign","label":"value","offset":0,"slot":"1","type":"t_uint256"},{"astId":45,"contract":"Campaign.sol:Campaign","label":"recipient","offset":0,"slot":"2","type":"t_address"},{"astId":47,"contract":"Campaign.sol:Campaign","label":"complete","offset":20,"slot":"2","type":"t_bool"},{"astId":49,"contract":"Campaign.sol:Campaign","label":"approvalCount","offset":0,"slot":"3","type":"t_uint256"},{"astId":53,"contract":"Campaign.sol:Campaign","label":"approvals","offset":0,"slot":"4","type":"t_mapping(t_address,t_bool)"}],"numberOfBytes":"160"},"t_uint256":{"encoding":"inplace","label":"uint256","numberOfBytes":"32"}}},"userdoc":{"kind":"user","methods":{},"version":1}}